{
  "contractName": "ASIcontract",
  "abi": [
    {
      "constant": true,
      "inputs": [],
      "name": "irmaddress",
      "outputs": [
        {
          "name": "",
          "type": "address"
        }
      ],
      "payable": false,
      "stateMutability": "view",
      "type": "function"
    },
    {
      "constant": true,
      "inputs": [],
      "name": "registry",
      "outputs": [
        {
          "name": "",
          "type": "address"
        }
      ],
      "payable": false,
      "stateMutability": "view",
      "type": "function"
    },
    {
      "inputs": [
        {
          "name": "_owner",
          "type": "address"
        },
        {
          "name": "_irmaddress",
          "type": "address"
        }
      ],
      "payable": true,
      "stateMutability": "payable",
      "type": "constructor"
    },
    {
      "constant": false,
      "inputs": [
        {
          "name": "ASN",
          "type": "uint32"
        },
        {
          "name": "_flag",
          "type": "uint8"
        },
        {
          "name": "_relation",
          "type": "uint8"
        }
      ],
      "name": "addPeer",
      "outputs": [],
      "payable": false,
      "stateMutability": "nonpayable",
      "type": "function"
    },
    {
      "constant": false,
      "inputs": [
        {
          "name": "ASN",
          "type": "uint32"
        }
      ],
      "name": "removePeer",
      "outputs": [],
      "payable": false,
      "stateMutability": "nonpayable",
      "type": "function"
    },
    {
      "constant": true,
      "inputs": [
        {
          "name": "ASN",
          "type": "uint32"
        }
      ],
      "name": "checkPeer",
      "outputs": [
        {
          "name": "",
          "type": "bool"
        }
      ],
      "payable": false,
      "stateMutability": "view",
      "type": "function"
    },
    {
      "constant": true,
      "inputs": [
        {
          "name": "ASN",
          "type": "uint32"
        }
      ],
      "name": "getFlag",
      "outputs": [
        {
          "name": "",
          "type": "uint8"
        }
      ],
      "payable": false,
      "stateMutability": "view",
      "type": "function"
    },
    {
      "constant": false,
      "inputs": [],
      "name": "disable",
      "outputs": [],
      "payable": false,
      "stateMutability": "nonpayable",
      "type": "function"
    },
    {
      "constant": false,
      "inputs": [],
      "name": "enable",
      "outputs": [],
      "payable": false,
      "stateMutability": "nonpayable",
      "type": "function"
    },
    {
      "constant": true,
      "inputs": [],
      "name": "isDisabled",
      "outputs": [
        {
          "name": "",
          "type": "bool"
        }
      ],
      "payable": false,
      "stateMutability": "view",
      "type": "function"
    },
    {
      "constant": true,
      "inputs": [],
      "name": "getIRM",
      "outputs": [
        {
          "name": "",
          "type": "address"
        }
      ],
      "payable": false,
      "stateMutability": "view",
      "type": "function"
    },
    {
      "constant": true,
      "inputs": [
        {
          "name": "flagList",
          "type": "uint8[]"
        },
        {
          "name": "AS1",
          "type": "uint32"
        }
      ],
      "name": "policyCheck",
      "outputs": [
        {
          "name": "",
          "type": "bool"
        }
      ],
      "payable": false,
      "stateMutability": "view",
      "type": "function"
    },
    {
      "constant": false,
      "inputs": [
        {
          "name": "ipStr1",
          "type": "uint8"
        },
        {
          "name": "ipStr2",
          "type": "uint8"
        },
        {
          "name": "ipStr3",
          "type": "uint8"
        },
        {
          "name": "ipStr4",
          "type": "uint8"
        },
        {
          "name": "wNum",
          "type": "uint8"
        },
        {
          "name": "ASpath",
          "type": "uint32[]"
        }
      ],
      "name": "updateFlag",
      "outputs": [
        {
          "name": "",
          "type": "bool"
        }
      ],
      "payable": false,
      "stateMutability": "nonpayable",
      "type": "function"
    }
  ],
  "bytecode": "0x60806040526040516040806115308339810180604052604081101561002357600080fd5b810190808051906020019092919080519060200190929190505050816000806101000a81548173ffffffffffffffffffffffffffffffffffffffff021916908373ffffffffffffffffffffffffffffffffffffffff16021790555081600160006101000a81548173ffffffffffffffffffffffffffffffffffffffff021916908373ffffffffffffffffffffffffffffffffffffffff16021790555033600260006101000a81548173ffffffffffffffffffffffffffffffffffffffff021916908373ffffffffffffffffffffffffffffffffffffffff16021790555080600360006101000a81548173ffffffffffffffffffffffffffffffffffffffff021916908373ffffffffffffffffffffffffffffffffffffffff1602179055506000600260146101000a81548160ff02191690831515021790555050506113c38061016d6000396000f3fe6080604052600436106100ba576000357c0100000000000000000000000000000000000000000000000000000000900463ffffffff1680630783dc1b146100bf578063216e2855146101005780632f2770db1461015b5780635c60627c14610172578063649b24881461025f5780636c57f5a9146102b65780637816775d146102e55780637b10399914610340578063824982f414610397578063897ffb45146103ee578063a3907d711461050c578063bb82140014610523575b600080fd5b3480156100cb57600080fd5b506100fe600480360360208110156100e257600080fd5b81019080803563ffffffff16906020019092919050505061057c565b005b34801561010c57600080fd5b506101596004803603606081101561012357600080fd5b81019080803563ffffffff169060200190929190803560ff169060200190929190803560ff1690602001909291905050506106a7565b005b34801561016757600080fd5b50610170610851565b005b34801561017e57600080fd5b506102456004803603604081101561019557600080fd5b81019080803590602001906401000000008111156101b257600080fd5b8201836020820111156101c457600080fd5b803590602001918460208302840111640100000000831117156101e657600080fd5b919080806020026020016040519081016040528093929190818152602001838360200280828437600081840152601f19601f820116905080830192505050505050509192919290803563ffffffff1690602001909291905050506108c9565b604051808215151515815260200191505060405180910390f35b34801561026b57600080fd5b50610274610a53565b604051808273ffffffffffffffffffffffffffffffffffffffff1673ffffffffffffffffffffffffffffffffffffffff16815260200191505060405180910390f35b3480156102c257600080fd5b506102cb610a79565b604051808215151515815260200191505060405180910390f35b3480156102f157600080fd5b506103246004803603602081101561030857600080fd5b81019080803563ffffffff169060200190929190505050610a90565b604051808260ff1660ff16815260200191505060405180910390f35b34801561034c57600080fd5b50610355610ac9565b604051808273ffffffffffffffffffffffffffffffffffffffff1673ffffffffffffffffffffffffffffffffffffffff16815260200191505060405180910390f35b3480156103a357600080fd5b506103ac610aef565b604051808273ffffffffffffffffffffffffffffffffffffffff1673ffffffffffffffffffffffffffffffffffffffff16815260200191505060405180910390f35b3480156103fa57600080fd5b506104f2600480360360c081101561041157600080fd5b81019080803560ff169060200190929190803560ff169060200190929190803560ff169060200190929190803560ff169060200190929190803560ff1690602001909291908035906020019064010000000081111561046f57600080fd5b82018360208201111561048157600080fd5b803590602001918460208302840111640100000000831117156104a357600080fd5b919080806020026020016040519081016040528093929190818152602001838360200280828437600081840152601f19601f820116905080830192505050505050509192919290505050610b19565b604051808215151515815260200191505060405180910390f35b34801561051857600080fd5b506105216112d5565b005b34801561052f57600080fd5b506105626004803603602081101561054657600080fd5b81019080803563ffffffff16906020019092919050505061134d565b604051808215151515815260200191505060405180910390f35b600160009054906101000a900473ffffffffffffffffffffffffffffffffffffffff1673ffffffffffffffffffffffffffffffffffffffff163373ffffffffffffffffffffffffffffffffffffffff16148061062457506000809054906101000a900473ffffffffffffffffffffffffffffffffffffffff1673ffffffffffffffffffffffffffffffffffffffff163373ffffffffffffffffffffffffffffffffffffffff16145b151561062f57600080fd5b600460008263ffffffff1663ffffffff168152602001908152602001600020600080820160006101000a81549063ffffffff02191690556000820160046101000a81549060ff02191690556000820160056101000a81549060ff02191690556000820160066101000a81549060ff0219169055505050565b600160009054906101000a900473ffffffffffffffffffffffffffffffffffffffff1673ffffffffffffffffffffffffffffffffffffffff163373ffffffffffffffffffffffffffffffffffffffff16148061074f57506000809054906101000a900473ffffffffffffffffffffffffffffffffffffffff1673ffffffffffffffffffffffffffffffffffffffff163373ffffffffffffffffffffffffffffffffffffffff16145b151561075a57600080fd5b82600460008563ffffffff1663ffffffff16815260200190815260200160002060000160006101000a81548163ffffffff021916908363ffffffff1602179055506001600460008563ffffffff1663ffffffff16815260200190815260200160002060000160056101000a81548160ff02191690831515021790555081600460008563ffffffff1663ffffffff16815260200190815260200160002060000160046101000a81548160ff021916908360ff16021790555080600460008563ffffffff1663ffffffff16815260200190815260200160002060000160066101000a81548160ff021916908360ff160217905550505050565b6000809054906101000a900473ffffffffffffffffffffffffffffffffffffffff1673ffffffffffffffffffffffffffffffffffffffff163373ffffffffffffffffffffffffffffffffffffffff161415156108ac57600080fd5b6001600260146101000a81548160ff021916908315150217905550565b600080600460008463ffffffff1663ffffffff16815260200190815260200160002060000160069054906101000a900460ff16905060006001905060008260ff1614156109625760008090505b855181101561095c576000868281518110151561092f57fe5b9060200190602002015160ff1614151561094f5760009350505050610a4d565b8080600101915050610916565b50610a46565b60018260ff1614156109c1576000600190505b85518110156109bb576000868281518110151561098e57fe5b9060200190602002015160ff161415156109ae5760009350505050610a4d565b8080600101915050610975565b50610a45565b60008090505b8551811015610a43576001821415610a06578186828151811015156109e857fe5b9060200190602002015160ff16141515610a0157600091505b610a36565b818682815181101515610a1557fe5b9060200190602002015160ff16141515610a355760009350505050610a4d565b5b80806001019150506109c7565b505b5b6001925050505b92915050565b600360009054906101000a900473ffffffffffffffffffffffffffffffffffffffff1681565b6000600260149054906101000a900460ff16905090565b6000600460008363ffffffff1663ffffffff16815260200190815260200160002060000160049054906101000a900460ff169050919050565b600260009054906101000a900473ffffffffffffffffffffffffffffffffffffffff1681565b6000600360009054906101000a900473ffffffffffffffffffffffffffffffffffffffff16905090565b6000600160009054906101000a900473ffffffffffffffffffffffffffffffffffffffff1673ffffffffffffffffffffffffffffffffffffffff163373ffffffffffffffffffffffffffffffffffffffff161480610bc357506000809054906101000a900473ffffffffffffffffffffffffffffffffffffffff1673ffffffffffffffffffffffffffffffffffffffff163373ffffffffffffffffffffffffffffffffffffffff16145b1515610bce57600080fd5b600082519050606081604051908082528060200260200182016040528015610c055781602001602082028038833980820191505090505b50905060008460018403815181101515610c1b57fe5b90602001906020020151905060046000866001815181101515610c3a57fe5b9060200190602002015163ffffffff1663ffffffff16815260200190815260200160002060000160049054906101000a900460ff16826000815181101515610c7e57fe5b9060200190602002019060ff16908160ff16815250506000600360009054906101000a900473ffffffffffffffffffffffffffffffffffffffff16905060008173ffffffffffffffffffffffffffffffffffffffff1663c2b8c205848e8e8e8e8e6040518763ffffffff167c0100000000000000000000000000000000000000000000000000000000028152600401808763ffffffff1663ffffffff1681526020018660ff1660ff1681526020018560ff1660ff1681526020018460ff1660ff1681526020018360ff1660ff1681526020018260ff1660ff1681526020019650505050505050602060405180830381600087803b158015610d7e57600080fd5b505af1158015610d92573d6000803e3d6000fd5b505050506040513d6020811015610da857600080fd5b81019080805190602001909291905050509050600115158115151415611293576000600190505b8581101561128d5760008882815181101515610de757fe5b90602001906020020151905060008473ffffffffffffffffffffffffffffffffffffffff1663e4d5c984836040518263ffffffff167c0100000000000000000000000000000000000000000000000000000000028152600401808263ffffffff1663ffffffff16815260200191505060206040518083038186803b158015610e6e57600080fd5b505afa158015610e82573d6000803e3d6000fd5b505050506040513d6020811015610e9857600080fd5b81019080805190602001909291905050509050600081905060018903841415156111895760008173ffffffffffffffffffffffffffffffffffffffff1663bb8214008d60018803815181101515610eeb57fe5b906020019060200201516040518263ffffffff167c0100000000000000000000000000000000000000000000000000000000028152600401808263ffffffff1663ffffffff16815260200191505060206040518083038186803b158015610f5157600080fd5b505afa158015610f65573d6000803e3d6000fd5b505050506040513d6020811015610f7b57600080fd5b8101908080519060200190929190505050905060008273ffffffffffffffffffffffffffffffffffffffff1663bb8214008e60018901815181101515610fbd57fe5b906020019060200201516040518263ffffffff167c0100000000000000000000000000000000000000000000000000000000028152600401808263ffffffff1663ffffffff16815260200191505060206040518083038186803b15801561102357600080fd5b505afa158015611037573d6000803e3d6000fd5b505050506040513d602081101561104d57600080fd5b810190808051906020019092919050505090508273ffffffffffffffffffffffffffffffffffffffff16637816775d8e6001890181518110151561108d57fe5b906020019060200201516040518263ffffffff167c0100000000000000000000000000000000000000000000000000000000028152600401808263ffffffff1663ffffffff16815260200191505060206040518083038186803b1580156110f357600080fd5b505afa158015611107573d6000803e3d6000fd5b505050506040513d602081101561111d57600080fd5b81019080805190602001909291905050508a8781518110151561113c57fe5b9060200190602002019060ff16908160ff1681525050600015158215151480611169575060001515811515145b156111825760009b5050505050505050505050506112cb565b505061127d565b60008173ffffffffffffffffffffffffffffffffffffffff1663bb8214008d600188038151811015156111b857fe5b906020019060200201516040518263ffffffff167c0100000000000000000000000000000000000000000000000000000000028152600401808263ffffffff1663ffffffff16815260200191505060206040518083038186803b15801561121e57600080fd5b505afa158015611232573d6000803e3d6000fd5b505050506040513d602081101561124857600080fd5b8101908080519060200190929190505050905060001515811515141561127b5760009a50505050505050505050506112cb565b505b5050508080600101915050610dcf565b506112a1565b6000955050505050506112cb565b6112c3848860018151811015156112b457fe5b906020019060200201516108c9565b955050505050505b9695505050505050565b6000809054906101000a900473ffffffffffffffffffffffffffffffffffffffff1673ffffffffffffffffffffffffffffffffffffffff163373ffffffffffffffffffffffffffffffffffffffff1614151561133057600080fd5b6000600260146101000a81548160ff021916908315150217905550565b6000600460008363ffffffff1663ffffffff16815260200190815260200160002060000160059054906101000a900460ff161561138d5760019050611392565b600090505b91905056fea165627a7a7230582076251eebfc0640d80af06abbf7417c4bca270b5e9dd889a1888f428303f915ae0029",
  "source": "pragma solidity >=0.4.22 <0.6.0;\r\nimport \"./IRMcontract.sol\";\r\n\r\ncontract ASIcontract {\r\n    address private owner;\r\n    address private admin;\r\n    address public registry;\r\n    \r\n    bool private disabled;\r\n    address public irmaddress;\r\n    //contract IRM irm; \r\n    struct peer {\r\n        uint32 peernum;\r\n        uint8 flag;\r\n        bool isPeer;\r\n        uint8 relation;\r\n    }\r\n    \r\n    mapping(uint32 => peer) private peers;\r\n    \r\n    constructor(address _owner,address _irmaddress) public payable{\r\n        \r\n        owner = _owner;\r\n        admin = _owner;\r\n        registry = msg.sender;\r\n        irmaddress = _irmaddress;\r\n        disabled = false;\r\n    }\r\n    \r\n    modifier onlyOwner() {\r\n        require(msg.sender == owner);\r\n        _;\r\n    }\r\n\r\n    modifier onlyAdminOrOwner(){\r\n        require(msg.sender == admin || msg.sender == owner);\r\n        _;\r\n    }\r\n    \r\n    // add peer neighbor\r\n    function addPeer(uint32 ASN, uint8 _flag, uint8 _relation) external onlyAdminOrOwner{\r\n        peers[ASN].peernum = ASN;\r\n        peers[ASN].isPeer = true;\r\n        peers[ASN].flag = _flag;\r\n        peers[ASN].relation = _relation;\r\n    }\r\n    \r\n    \r\n    function removePeer(uint32 ASN)  external onlyAdminOrOwner{\r\n        delete peers[ASN];\r\n    }\r\n    \r\n    function checkPeer(uint32 ASN) public view returns (bool){\r\n        if (peers[ASN].isPeer) \r\n            return true;\r\n        else \r\n            return false;\r\n        \r\n    }\r\n    \r\n    function getFlag(uint32 ASN) public view returns (uint8){\r\n        return peers[ASN].flag;\r\n    }\r\n    \r\n    function disable() external onlyOwner {\r\n        disabled = true;\r\n    }\r\n    \r\n    function enable() external onlyOwner {\r\n        disabled = false;\r\n    }\r\n    \r\n    function isDisabled() public view returns (bool){\r\n        return disabled;\r\n    }\r\n    \r\n    function getIRM() public view returns(address)\r\n    {\r\n        return irmaddress;\r\n    }\r\n    \r\n    function policyCheck(uint8[] memory flagList, uint32 AS1) public view returns (bool){\r\n        uint8 relation = peers[AS1].relation;\r\n        int flag = 1;\r\n        if (relation  == 0)  //as1 is customer of as0\r\n        {\r\n            for (uint i =0; i < flagList.length; i++)\r\n            {\r\n                if (flagList[i] != 0) return false;\r\n            }\r\n            \r\n        }\r\n        else if (relation == 1)  //as1 is peer of as0\r\n        {\r\n            for (uint i =1; i < flagList.length; i++)\r\n            {\r\n                if (flagList[i] != 0) return false;\r\n            }\r\n        }\r\n        else  //as1 is provider of as0\r\n        {\r\n            for (uint i =0; i < flagList.length; i++)\r\n            {\r\n                if(flag ==1){\r\n                    if (flagList[i] != flag) flag =0;\r\n                }\r\n                else{\r\n                    if (flagList[i] != flag) return false;\r\n                }\r\n            }\r\n        }\r\n        return true;\r\n    }\r\n    \r\n   function updateFlag(uint8 ipStr1, uint8 ipStr2, uint8 ipStr3, uint8 ipStr4, uint8 wNum, uint32[] memory ASpath) public onlyAdminOrOwner returns (bool){\r\n        uint ASpathLen = ASpath.length;\r\n        uint8[] memory flagList = new uint8[](ASpathLen);\r\n        uint32 ASorigin = ASpath[ASpathLen-1];\r\n\t    flagList[0] = peers[ASpath[1]].flag;  \r\n        IRMcontract irm = IRMcontract(irmaddress);\r\n        bool isPrefix = irm.hasPrefix(ASorigin, ipStr1, ipStr2, ipStr3, ipStr4, wNum);\r\n\t    if(isPrefix==true){\r\n         for (uint i = 1; i < ASpathLen; i++){\r\n\r\n            uint32 ASn = ASpath[i];\r\n            address ASnCtraddr = irm.getASI(ASn);\r\n            ASIcontract ASnCtr = ASIcontract(ASnCtraddr);\r\n\r\n            if (i != ASpathLen-1)\r\n            {\r\n                bool beforPeer = ASnCtr.checkPeer(ASpath[i-1]);\r\n                bool afterPeer = ASnCtr.checkPeer(ASpath[i+1]);\r\n                flagList[i] = ASnCtr.getFlag(ASpath[i+1]);\r\n                if (beforPeer == false || afterPeer == false)\r\n                    return false;\r\n            }\r\n            else\r\n            {\r\n                bool beforPeer = ASnCtr.checkPeer(ASpath[i-1]);\r\n                if (beforPeer == false) \r\n                    return false;\r\n            }\r\n\r\n        }\r\n\t}else{\r\n\t\treturn false;\r\n}\r\n        return policyCheck(flagList,ASpath[1]);\r\n    }\r\n\r\n        \r\n}\r\n \r\n",
  "sourcePath": "/home/bayang/桌面/ISRchain/contracts/ASIcontract.sol",
  "compiler": {
    "name": "solc",
    "version": "0.5.0+commit.1d4f565a.Emscripten.clang"
  },
  "schemaVersion": "3.0.9",
  "updatedAt": "2019-10-31T16:06:57.251Z",
  "devdoc": {
    "methods": {}
  },
  "userdoc": {
    "methods": {}
  }
}