{
  "contractName": "IRMcontract",
  "abi": [
    {
      "constant": true,
      "inputs": [
        {
          "name": "",
          "type": "uint256"
        }
      ],
      "name": "currentIPBs",
      "outputs": [
        {
          "name": "IPstr",
          "type": "uint32"
        },
        {
          "name": "wNum",
          "type": "uint8"
        },
        {
          "name": "ASN",
          "type": "uint32"
        },
        {
          "name": "state",
          "type": "uint8"
        },
        {
          "name": "owner",
          "type": "address"
        },
        {
          "name": "lease",
          "type": "address"
        }
      ],
      "payable": false,
      "stateMutability": "view",
      "type": "function"
    },
    {
      "constant": true,
      "inputs": [],
      "name": "ownerICANN",
      "outputs": [
        {
          "name": "",
          "type": "address"
        }
      ],
      "payable": false,
      "stateMutability": "view",
      "type": "function"
    },
    {
      "constant": true,
      "inputs": [
        {
          "name": "",
          "type": "uint32"
        }
      ],
      "name": "ROA",
      "outputs": [
        {
          "name": "owner",
          "type": "address"
        },
        {
          "name": "asiContract",
          "type": "address"
        },
        {
          "name": "stime",
          "type": "uint256"
        },
        {
          "name": "IPBindex",
          "type": "uint256"
        },
        {
          "name": "period",
          "type": "uint256"
        }
      ],
      "payable": false,
      "stateMutability": "view",
      "type": "function"
    },
    {
      "inputs": [],
      "payable": true,
      "stateMutability": "payable",
      "type": "constructor"
    },
    {
      "anonymous": false,
      "inputs": [
        {
          "indexed": false,
          "name": "ipStr1",
          "type": "uint8"
        },
        {
          "indexed": false,
          "name": "ipStr2",
          "type": "uint8"
        },
        {
          "indexed": false,
          "name": "ipStr3",
          "type": "uint8"
        },
        {
          "indexed": false,
          "name": "ipStr4",
          "type": "uint8"
        },
        {
          "indexed": false,
          "name": "wNum",
          "type": "uint8"
        }
      ],
      "name": "Register",
      "type": "event"
    },
    {
      "anonymous": false,
      "inputs": [
        {
          "indexed": false,
          "name": "ipStr1",
          "type": "uint8"
        },
        {
          "indexed": false,
          "name": "ipStr2",
          "type": "uint8"
        },
        {
          "indexed": false,
          "name": "ipStr3",
          "type": "uint8"
        },
        {
          "indexed": false,
          "name": "ipStr4",
          "type": "uint8"
        },
        {
          "indexed": false,
          "name": "wNum",
          "type": "uint8"
        },
        {
          "indexed": false,
          "name": "delegatee",
          "type": "address"
        }
      ],
      "name": "Delegate",
      "type": "event"
    },
    {
      "anonymous": false,
      "inputs": [
        {
          "indexed": false,
          "name": "owner",
          "type": "address"
        },
        {
          "indexed": false,
          "name": "ipStr1",
          "type": "uint8"
        },
        {
          "indexed": false,
          "name": "ipStr2",
          "type": "uint8"
        },
        {
          "indexed": false,
          "name": "ipStr3",
          "type": "uint8"
        },
        {
          "indexed": false,
          "name": "ipStr4",
          "type": "uint8"
        },
        {
          "indexed": false,
          "name": "wNum",
          "type": "uint8"
        },
        {
          "indexed": false,
          "name": "lease",
          "type": "address"
        }
      ],
      "name": "Allocate",
      "type": "event"
    },
    {
      "anonymous": false,
      "inputs": [
        {
          "indexed": false,
          "name": "ipStr1",
          "type": "uint8"
        },
        {
          "indexed": false,
          "name": "ipStr2",
          "type": "uint8"
        },
        {
          "indexed": false,
          "name": "ipStr3",
          "type": "uint8"
        },
        {
          "indexed": false,
          "name": "ipStr4",
          "type": "uint8"
        },
        {
          "indexed": false,
          "name": "wNum",
          "type": "uint8"
        },
        {
          "indexed": false,
          "name": "lease",
          "type": "address"
        }
      ],
      "name": "Revoke",
      "type": "event"
    },
    {
      "constant": false,
      "inputs": [
        {
          "name": "ASN",
          "type": "uint32"
        }
      ],
      "name": "registerAS",
      "outputs": [],
      "payable": true,
      "stateMutability": "payable",
      "type": "function"
    },
    {
      "constant": true,
      "inputs": [
        {
          "name": "ASN",
          "type": "uint32"
        }
      ],
      "name": "getASI",
      "outputs": [
        {
          "name": "",
          "type": "address"
        }
      ],
      "payable": false,
      "stateMutability": "view",
      "type": "function"
    },
    {
      "constant": false,
      "inputs": [
        {
          "name": "ASN",
          "type": "uint32"
        },
        {
          "name": "IPBindex",
          "type": "uint256"
        }
      ],
      "name": "updateAS",
      "outputs": [
        {
          "name": "success",
          "type": "bool"
        }
      ],
      "payable": false,
      "stateMutability": "nonpayable",
      "type": "function"
    },
    {
      "constant": false,
      "inputs": [
        {
          "name": "ASN",
          "type": "uint32"
        },
        {
          "name": "ASowner",
          "type": "address"
        }
      ],
      "name": "allocateAS",
      "outputs": [],
      "payable": false,
      "stateMutability": "nonpayable",
      "type": "function"
    },
    {
      "constant": false,
      "inputs": [
        {
          "name": "ipStr1",
          "type": "uint8"
        },
        {
          "name": "ipStr2",
          "type": "uint8"
        },
        {
          "name": "ipStr3",
          "type": "uint8"
        },
        {
          "name": "ipStr4",
          "type": "uint8"
        }
      ],
      "name": "covertIP",
      "outputs": [
        {
          "name": "",
          "type": "uint32"
        }
      ],
      "payable": false,
      "stateMutability": "nonpayable",
      "type": "function"
    },
    {
      "constant": false,
      "inputs": [
        {
          "name": "str_ip",
          "type": "uint32"
        },
        {
          "name": "w_num",
          "type": "uint8"
        }
      ],
      "name": "IPB_next",
      "outputs": [
        {
          "name": "",
          "type": "uint32"
        }
      ],
      "payable": false,
      "stateMutability": "nonpayable",
      "type": "function"
    },
    {
      "constant": false,
      "inputs": [
        {
          "name": "ip_str",
          "type": "uint32"
        },
        {
          "name": "w_num",
          "type": "uint8"
        }
      ],
      "name": "IPB_check",
      "outputs": [
        {
          "name": "",
          "type": "int256"
        }
      ],
      "payable": false,
      "stateMutability": "nonpayable",
      "type": "function"
    },
    {
      "constant": false,
      "inputs": [
        {
          "name": "ip_str",
          "type": "uint32"
        },
        {
          "name": "w_num",
          "type": "uint8"
        }
      ],
      "name": "IPB_exist",
      "outputs": [
        {
          "name": "",
          "type": "int256"
        }
      ],
      "payable": false,
      "stateMutability": "nonpayable",
      "type": "function"
    },
    {
      "constant": false,
      "inputs": [
        {
          "name": "index",
          "type": "uint256"
        },
        {
          "name": "ip_str",
          "type": "uint32"
        },
        {
          "name": "w_num",
          "type": "uint8"
        }
      ],
      "name": "IPB_divide",
      "outputs": [
        {
          "name": "",
          "type": "uint256"
        }
      ],
      "payable": false,
      "stateMutability": "nonpayable",
      "type": "function"
    },
    {
      "constant": false,
      "inputs": [
        {
          "name": "num",
          "type": "uint256"
        },
        {
          "name": "unum",
          "type": "uint256"
        }
      ],
      "name": "IPB_min",
      "outputs": [],
      "payable": false,
      "stateMutability": "nonpayable",
      "type": "function"
    },
    {
      "constant": false,
      "inputs": [
        {
          "name": "updatenum",
          "type": "uint256"
        }
      ],
      "name": "IPB_update",
      "outputs": [
        {
          "name": "",
          "type": "uint256"
        }
      ],
      "payable": false,
      "stateMutability": "nonpayable",
      "type": "function"
    },
    {
      "constant": false,
      "inputs": [
        {
          "name": "ASN",
          "type": "uint32"
        },
        {
          "name": "ipStr1",
          "type": "uint8"
        },
        {
          "name": "ipStr2",
          "type": "uint8"
        },
        {
          "name": "ipStr3",
          "type": "uint8"
        },
        {
          "name": "ipStr4",
          "type": "uint8"
        },
        {
          "name": "w_num",
          "type": "uint8"
        }
      ],
      "name": "registerPrefix",
      "outputs": [
        {
          "name": "",
          "type": "uint256"
        }
      ],
      "payable": false,
      "stateMutability": "nonpayable",
      "type": "function"
    },
    {
      "constant": false,
      "inputs": [
        {
          "name": "ipStr1",
          "type": "uint8"
        },
        {
          "name": "ipStr2",
          "type": "uint8"
        },
        {
          "name": "ipStr3",
          "type": "uint8"
        },
        {
          "name": "ipStr4",
          "type": "uint8"
        },
        {
          "name": "w_num",
          "type": "uint8"
        },
        {
          "name": "delagatee",
          "type": "address"
        }
      ],
      "name": "delegatePrefix",
      "outputs": [],
      "payable": false,
      "stateMutability": "nonpayable",
      "type": "function"
    },
    {
      "constant": false,
      "inputs": [
        {
          "name": "ipStr1",
          "type": "uint8"
        },
        {
          "name": "ipStr2",
          "type": "uint8"
        },
        {
          "name": "ipStr3",
          "type": "uint8"
        },
        {
          "name": "ipStr4",
          "type": "uint8"
        },
        {
          "name": "w_num",
          "type": "uint8"
        },
        {
          "name": "owner",
          "type": "address"
        }
      ],
      "name": "assignPrefix",
      "outputs": [],
      "payable": false,
      "stateMutability": "nonpayable",
      "type": "function"
    },
    {
      "constant": false,
      "inputs": [
        {
          "name": "ASN",
          "type": "uint32"
        },
        {
          "name": "ipStr1",
          "type": "uint8"
        },
        {
          "name": "ipStr2",
          "type": "uint8"
        },
        {
          "name": "ipStr3",
          "type": "uint8"
        },
        {
          "name": "ipStr4",
          "type": "uint8"
        },
        {
          "name": "w_num",
          "type": "uint8"
        }
      ],
      "name": "checkPrefix",
      "outputs": [
        {
          "name": "",
          "type": "int256"
        }
      ],
      "payable": false,
      "stateMutability": "nonpayable",
      "type": "function"
    },
    {
      "constant": false,
      "inputs": [
        {
          "name": "ipStr1",
          "type": "uint8"
        },
        {
          "name": "ipStr2",
          "type": "uint8"
        },
        {
          "name": "ipStr3",
          "type": "uint8"
        },
        {
          "name": "ipStr4",
          "type": "uint8"
        },
        {
          "name": "w_num",
          "type": "uint8"
        }
      ],
      "name": "revokePrefix",
      "outputs": [],
      "payable": false,
      "stateMutability": "nonpayable",
      "type": "function"
    },
    {
      "constant": false,
      "inputs": [
        {
          "name": "ASN",
          "type": "uint32"
        },
        {
          "name": "ipStr1",
          "type": "uint8"
        },
        {
          "name": "ipStr2",
          "type": "uint8"
        },
        {
          "name": "ipStr3",
          "type": "uint8"
        },
        {
          "name": "ipStr4",
          "type": "uint8"
        },
        {
          "name": "wNum",
          "type": "uint8"
        }
      ],
      "name": "hasPrefix",
      "outputs": [
        {
          "name": "",
          "type": "bool"
        }
      ],
      "payable": false,
      "stateMutability": "nonpayable",
      "type": "function"
    }
  ],
  "bytecode": "0x6080604052336000806101000a81548173ffffffffffffffffffffffffffffffffffffffff021916908373ffffffffffffffffffffffffffffffffffffffff16021790555061642a806100536000396000f3fe608060405260043610610112576000357c0100000000000000000000000000000000000000000000000000000000900463ffffffff16806314e146f914610117578063169364241461020d5780633ddd82c71461026f57806340d8f9e31461030557806348ebbd8614610339578063490f1e2d146103885780634cc3e296146103f65780634f9e73d0146104595780635571bcce1461049e57806360054db71461050a578063663e400f1461057c57806382516fe2146105d35780638562bbd814610635578063b303d69c146106ba578063b498717114610750578063b76418f5146107e2578063c2b8c205146108ab578063d01a65f814610945578063e4d5c984146109a6578063f910a10f14610a27575b600080fd5b34801561012357600080fd5b506101506004803603602081101561013a57600080fd5b8101908080359060200190929190505050610ab9565b604051808763ffffffff1663ffffffff1681526020018660ff1660ff1681526020018563ffffffff1663ffffffff16815260200184600381111561019057fe5b60ff1681526020018373ffffffffffffffffffffffffffffffffffffffff1673ffffffffffffffffffffffffffffffffffffffff1681526020018273ffffffffffffffffffffffffffffffffffffffff1673ffffffffffffffffffffffffffffffffffffffff168152602001965050505050505060405180910390f35b34801561021957600080fd5b506102596004803603604081101561023057600080fd5b81019080803563ffffffff169060200190929190803560ff169060200190929190505050610b7e565b6040518082815260200191505060405180910390f35b34801561027b57600080fd5b506102ef600480360360c081101561029257600080fd5b81019080803563ffffffff169060200190929190803560ff169060200190929190803560ff169060200190929190803560ff169060200190929190803560ff169060200190929190803560ff169060200190929190505050610e21565b6040518082815260200191505060405180910390f35b6103376004803603602081101561031b57600080fd5b81019080803563ffffffff169060200190929190505050611277565b005b34801561034557600080fd5b506103726004803603602081101561035c57600080fd5b81019080803590602001909291905050506115ca565b6040518082815260200191505060405180910390f35b34801561039457600080fd5b506103d4600480360360408110156103ab57600080fd5b81019080803563ffffffff169060200190929190803560ff169060200190929190505050611d4d565b604051808263ffffffff1663ffffffff16815260200191505060405180910390f35b34801561040257600080fd5b5061043f6004803603604081101561041957600080fd5b81019080803563ffffffff16906020019092919080359060200190929190505050611e10565b604051808215151515815260200191505060405180910390f35b34801561046557600080fd5b5061049c6004803603604081101561047c57600080fd5b810190808035906020019092919080359060200190929190505050611f36565b005b3480156104aa57600080fd5b506104f4600480360360608110156104c157600080fd5b8101908080359060200190929190803563ffffffff169060200190929190803560ff16906020019092919050505061246a565b6040518082815260200191505060405180910390f35b34801561051657600080fd5b5061057a600480360360a081101561052d57600080fd5b81019080803560ff169060200190929190803560ff169060200190929190803560ff169060200190929190803560ff169060200190929190803560ff169060200190929190505050612f86565b005b34801561058857600080fd5b5061059161338d565b604051808273ffffffffffffffffffffffffffffffffffffffff1673ffffffffffffffffffffffffffffffffffffffff16815260200191505060405180910390f35b3480156105df57600080fd5b5061061f600480360360408110156105f657600080fd5b81019080803563ffffffff169060200190929190803560ff1690602001909291905050506133b2565b6040518082815260200191505060405180910390f35b34801561064157600080fd5b506106986004803603608081101561065857600080fd5b81019080803560ff169060200190929190803560ff169060200190929190803560ff169060200190929190803560ff16906020019092919050505061364f565b604051808263ffffffff1663ffffffff16815260200191505060405180910390f35b3480156106c657600080fd5b5061073a600480360360c08110156106dd57600080fd5b81019080803563ffffffff169060200190929190803560ff169060200190929190803560ff169060200190929190803560ff169060200190929190803560ff169060200190929190803560ff169060200190929190505050613713565b6040518082815260200191505060405180910390f35b34801561075c57600080fd5b506107e0600480360360c081101561077357600080fd5b81019080803560ff169060200190929190803560ff169060200190929190803560ff169060200190929190803560ff169060200190929190803560ff169060200190929190803573ffffffffffffffffffffffffffffffffffffffff169060200190929190505050613863565b005b3480156107ee57600080fd5b506108216004803603602081101561080557600080fd5b81019080803563ffffffff169060200190929190505050613c7f565b604051808673ffffffffffffffffffffffffffffffffffffffff1673ffffffffffffffffffffffffffffffffffffffff1681526020018573ffffffffffffffffffffffffffffffffffffffff1673ffffffffffffffffffffffffffffffffffffffff1681526020018481526020018381526020018281526020019550505050505060405180910390f35b3480156108b757600080fd5b5061092b600480360360c08110156108ce57600080fd5b81019080803563ffffffff169060200190929190803560ff169060200190929190803560ff169060200190929190803560ff169060200190929190803560ff169060200190929190803560ff169060200190929190505050613cf5565b604051808215151515815260200191505060405180910390f35b34801561095157600080fd5b506109a46004803603604081101561096857600080fd5b81019080803563ffffffff169060200190929190803573ffffffffffffffffffffffffffffffffffffffff169060200190929190505050613dc8565b005b3480156109b257600080fd5b506109e5600480360360208110156109c957600080fd5b81019080803563ffffffff169060200190929190505050613fef565b604051808273ffffffffffffffffffffffffffffffffffffffff1673ffffffffffffffffffffffffffffffffffffffff16815260200191505060405180910390f35b348015610a3357600080fd5b50610ab7600480360360c0811015610a4a57600080fd5b81019080803560ff169060200190929190803560ff169060200190929190803560ff169060200190929190803560ff169060200190929190803560ff169060200190929190803573ffffffffffffffffffffffffffffffffffffffff16906020019092919050505061403b565b005b600381815481101515610ac857fe5b90600052602060002090600202016000915090508060000160009054906101000a900463ffffffff16908060000160049054906101000a900460ff16908060000160059054906101000a900463ffffffff16908060000160099054906101000a900460ff169080600001600a9054906101000a900473ffffffffffffffffffffffffffffffffffffffff16908060010160009054906101000a900473ffffffffffffffffffffffffffffffffffffffff16905086565b600080600090505b600380549050811015610ded578363ffffffff16600382815481101515610ba957fe5b906000526020600020906002020160000160009054906101000a900463ffffffff1663ffffffff161115610d1d578363ffffffff16610c4b600360018403815481101515610bf357fe5b906000526020600020906002020160000160009054906101000a900463ffffffff16600360018503815481101515610c2757fe5b906000526020600020906002020160000160049054906101000a900460ff16611d4d565b63ffffffff161115610c6c5760018103600481905550600454915050610e1b565b600381815481101515610c7b57fe5b906000526020600020906002020160000160009054906101000a900463ffffffff1663ffffffff16610cad8585611d4d565b63ffffffff161115610ceb577fffffffffffffffffffffffffffffffffffffffffffffffffffffffffffffffff600481905550600454915050610e1b565b7fffffffffffffffffffffffffffffffffffffffffffffffffffffffffffffffff600481905550600454915050610e1b565b8363ffffffff16600382815481101515610d3357fe5b906000526020600020906002020160000160009054906101000a900463ffffffff1663ffffffff161415610de0578260ff16600382815481101515610d7457fe5b906000526020600020906002020160000160049054906101000a900460ff1660ff161115610dce577fffffffffffffffffffffffffffffffffffffffffffffffffffffffffffffffff600481905550600454915050610e1b565b80600481905550600454915050610e1b565b8080600101915050610b86565b507fffffffffffffffffffffffffffffffffffffffffffffffffffffffffffffffff60048190555060045490505b92915050565b60008060009054906101000a900473ffffffffffffffffffffffffffffffffffffffff1673ffffffffffffffffffffffffffffffffffffffff163373ffffffffffffffffffffffffffffffffffffffff16141515610f0d576040517f08c379a00000000000000000000000000000000000000000000000000000000081526004018080602001828103825260278152602001807f4f6e6c79206f776e65724943414e4e2063616e2063616c6c207468697320667581526020017f6e6374696f6e2e0000000000000000000000000000000000000000000000000081525060400191505060405180910390fd5b60188260ff1611158015610f25575060088260ff1610155b1515610f3057600080fd5b610f3c8686868661364f565b600260006101000a81548163ffffffff021916908363ffffffff1602179055508160200360ff168260200360ff16600260009054906101000a900463ffffffff1663ffffffff16908060020a820491505063ffffffff169060020a02600260006101000a81548163ffffffff021916908363ffffffff1602179055506000610fd6600260009054906101000a900463ffffffff16846133b2565b905060008112151515610fe857600080fd5b60008190506060600160405190808252806020026020018201604052801561102a57816020015b611017614d4c565b81526020019060019003908161100f5790505b509050600260009054906101000a900463ffffffff1681600081518110151561104f57fe5b906020019060200201516000019063ffffffff16908163ffffffff16815250508481600081518110151561107f57fe5b906020019060200201516020019060ff16908160ff1681525050898160008151811015156110a957fe5b906020019060200201516040019063ffffffff16908163ffffffff168152505060008160008151811015156110da57fe5b906020019060200201516060019060038111156110f357fe5b9081600381111561110057fe5b815250506000809054906101000a900473ffffffffffffffffffffffffffffffffffffffff1681600081518110151561113557fe5b906020019060200201516080019073ffffffffffffffffffffffffffffffffffffffff16908173ffffffffffffffffffffffffffffffffffffffff16815250506000809054906101000a900473ffffffffffffffffffffffffffffffffffffffff168160008151811015156111a657fe5b9060200190602002015160a0019073ffffffffffffffffffffffffffffffffffffffff16908173ffffffffffffffffffffffffffffffffffffffff16815250506111f2816001846143dc565b7fab2165922afe5d41bd14e15bdd68b479c4f3d6adf7de3cfa51cc7b1dd83a63ac8989898989604051808660ff1660ff1681526020018560ff1660ff1681526020018460ff1660ff1681526020018360ff1660ff1681526020018260ff1660ff1681526020019550505050505060405180910390a18193505050509695505050505050565b6000809054906101000a900473ffffffffffffffffffffffffffffffffffffffff1673ffffffffffffffffffffffffffffffffffffffff163373ffffffffffffffffffffffffffffffffffffffff16141515611361576040517f08c379a00000000000000000000000000000000000000000000000000000000081526004018080602001828103825260278152602001807f4f6e6c79206f776e65724943414e4e2063616e2063616c6c207468697320667581526020017f6e6374696f6e2e0000000000000000000000000000000000000000000000000081525060400191505060405180910390fd5b600073ffffffffffffffffffffffffffffffffffffffff16600160008363ffffffff1663ffffffff16815260200190815260200160002060000160009054906101000a900473ffffffffffffffffffffffffffffffffffffffff1673ffffffffffffffffffffffffffffffffffffffff161415156113de57600080fd5b60008060009054906101000a900473ffffffffffffffffffffffffffffffffffffffff163061140b614dc9565b808373ffffffffffffffffffffffffffffffffffffffff1673ffffffffffffffffffffffffffffffffffffffff1681526020018273ffffffffffffffffffffffffffffffffffffffff1673ffffffffffffffffffffffffffffffffffffffff16815260200192505050604051809103906000f080158015611490573d6000803e3d6000fd5b50905080600160008463ffffffff1663ffffffff16815260200190815260200160002060010160006101000a81548173ffffffffffffffffffffffffffffffffffffffff021916908373ffffffffffffffffffffffffffffffffffffffff1602179055506000809054906101000a900473ffffffffffffffffffffffffffffffffffffffff16600160008463ffffffff1663ffffffff16815260200190815260200160002060000160006101000a81548173ffffffffffffffffffffffffffffffffffffffff021916908373ffffffffffffffffffffffffffffffffffffffff16021790555042600160008463ffffffff1663ffffffff168152602001908152602001600020600201819055506101f4600160008463ffffffff1663ffffffff168152602001908152602001600020600401819055505050565b6000808290506000600190506000600190505b81806115e65750805b15611d39576000831180156116a5575060036001840181548110151561160857fe5b906000526020600020906002020160000160009054906101000a900463ffffffff1663ffffffff1661169d60036001860381548110151561164557fe5b906000526020600020906002020160000160009054906101000a900463ffffffff1660036001870381548110151561167957fe5b906000526020600020906002020160000160049054906101000a900460ff16611d4d565b63ffffffff16145b801561171357506003838154811015156116bb57fe5b906000526020600020906002020160000160049054906101000a900460ff1660ff166003600185038154811015156116ef57fe5b906000526020600020906002020160000160049054906101000a900460ff1660ff16145b801561178d575060038381548110151561172957fe5b906000526020600020906002020160000160059054906101000a900463ffffffff1663ffffffff1660036001850381548110151561176357fe5b906000526020600020906002020160000160059054906101000a900463ffffffff1663ffffffff16145b801561184757506003838154811015156117a357fe5b9060005260206000209060020201600001600a9054906101000a900473ffffffffffffffffffffffffffffffffffffffff1673ffffffffffffffffffffffffffffffffffffffff166003600185038154811015156117fd57fe5b9060005260206000209060020201600001600a9054906101000a900473ffffffffffffffffffffffffffffffffffffffff1673ffffffffffffffffffffffffffffffffffffffff16145b8015611901575060038381548110151561185d57fe5b906000526020600020906002020160010160009054906101000a900473ffffffffffffffffffffffffffffffffffffffff1673ffffffffffffffffffffffffffffffffffffffff166003600185038154811015156118b757fe5b906000526020600020906002020160010160009054906101000a900473ffffffffffffffffffffffffffffffffffffffff1673ffffffffffffffffffffffffffffffffffffffff16145b1561198f57600160038481548110151561191757fe5b906000526020600020906002020160000160049054906101000a900460ff160360036001850381548110151561194957fe5b906000526020600020906002020160000160046101000a81548160ff021916908360ff16021790555061197d600184611f36565b82806001900393505060019150611994565b600091505b60018301600380549050118015611a4f57506003600184018154811015156119b857fe5b906000526020600020906002020160000160009054906101000a900463ffffffff1663ffffffff16611a476003858154811015156119f257fe5b906000526020600020906002020160000160009054906101000a900463ffffffff16600386815481101515611a2357fe5b906000526020600020906002020160000160049054906101000a900460ff16611d4d565b63ffffffff16145b8015611abd5750600360018401815481101515611a6857fe5b906000526020600020906002020160000160049054906101000a900460ff1660ff16600384815481101515611a9957fe5b906000526020600020906002020160000160049054906101000a900460ff1660ff16145b8015611b375750600383815481101515611ad357fe5b906000526020600020906002020160000160059054906101000a900463ffffffff1663ffffffff16600360018503815481101515611b0d57fe5b906000526020600020906002020160000160059054906101000a900463ffffffff1663ffffffff16145b8015611bf15750600360018401815481101515611b5057fe5b9060005260206000209060020201600001600a9054906101000a900473ffffffffffffffffffffffffffffffffffffffff1673ffffffffffffffffffffffffffffffffffffffff16600384815481101515611ba757fe5b9060005260206000209060020201600001600a9054906101000a900473ffffffffffffffffffffffffffffffffffffffff1673ffffffffffffffffffffffffffffffffffffffff16145b8015611cab5750600360018401815481101515611c0a57fe5b906000526020600020906002020160010160009054906101000a900473ffffffffffffffffffffffffffffffffffffffff1673ffffffffffffffffffffffffffffffffffffffff16600384815481101515611c6157fe5b906000526020600020906002020160010160009054906101000a900473ffffffffffffffffffffffffffffffffffffffff1673ffffffffffffffffffffffffffffffffffffffff16145b15611d2f576001600384815481101515611cc157fe5b906000526020600020906002020160000160049054906101000a900460ff1603600384815481101515611cf057fe5b906000526020600020906002020160000160046101000a81548160ff021916908360ff160217905550611d266001808501611f36565b60019050611d34565b600090505b6115dd565b826005819055506005549350505050919050565b60008160200360ff168363ffffffff16908060020a8204915050600260006101000a81548163ffffffff021916908363ffffffff1602179055506002600081819054906101000a900463ffffffff168092919060010191906101000a81548163ffffffff021916908363ffffffff160217905550508160200360ff168363ffffffff169060020a02600260006101000a81548163ffffffff021916908363ffffffff160217905550600260009054906101000a900463ffffffff16905092915050565b6000600160008463ffffffff1663ffffffff16815260200190815260200160002060000160009054906101000a900473ffffffffffffffffffffffffffffffffffffffff1673ffffffffffffffffffffffffffffffffffffffff163373ffffffffffffffffffffffffffffffffffffffff16148015611efa5750600382815481101515611e9957fe5b9060005260206000209060020201600001600a9054906101000a900473ffffffffffffffffffffffffffffffffffffffff1673ffffffffffffffffffffffffffffffffffffffff163373ffffffffffffffffffffffffffffffffffffffff16145b1515611f0557600080fd5b81600160008563ffffffff1663ffffffff168152602001908152602001600020600301819055506001905092915050565b60038054905081830111151515611f4c57600080fd5b600081830190505b6003805490508110156122a757600381815481101515611f7057fe5b906000526020600020906002020160000160009054906101000a900463ffffffff166003848303815481101515611fa357fe5b906000526020600020906002020160000160006101000a81548163ffffffff021916908363ffffffff160217905550600381815481101515611fe157fe5b906000526020600020906002020160000160049054906101000a900460ff16600384830381548110151561201157fe5b906000526020600020906002020160000160046101000a81548160ff021916908360ff16021790555060038181548110151561204957fe5b906000526020600020906002020160000160059054906101000a900463ffffffff16600384830381548110151561207c57fe5b906000526020600020906002020160000160056101000a81548163ffffffff021916908363ffffffff1602179055506003818154811015156120ba57fe5b906000526020600020906002020160000160099054906101000a900460ff1660038483038154811015156120ea57fe5b906000526020600020906002020160000160096101000a81548160ff0219169083600381111561211657fe5b021790555060038181548110151561212a57fe5b9060005260206000209060020201600001600a9054906101000a900473ffffffffffffffffffffffffffffffffffffffff16600384830381548110151561216d57fe5b9060005260206000209060020201600001600a6101000a81548173ffffffffffffffffffffffffffffffffffffffff021916908373ffffffffffffffffffffffffffffffffffffffff1602179055506003818154811015156121cb57fe5b906000526020600020906002020160010160009054906101000a900473ffffffffffffffffffffffffffffffffffffffff16600384830381548110151561220e57fe5b906000526020600020906002020160010160006101000a81548173ffffffffffffffffffffffffffffffffffffffff021916908373ffffffffffffffffffffffffffffffffffffffff16021790555061229960038281548110151561226f57fe5b906000526020600020906002020160000160059054906101000a900463ffffffff16848303611e10565b508080600101915050611f54565b5060008090505b8281101561244f576001600060036001600380549050038154811015156122d157fe5b906000526020600020906002020160000160059054906101000a900463ffffffff1663ffffffff1663ffffffff168152602001908152602001600020600080820160006101000a81549073ffffffffffffffffffffffffffffffffffffffff02191690556001820160006101000a81549073ffffffffffffffffffffffffffffffffffffffff02191690556002820160009055600382016000905560048201600090555050600360016003805490500381548110151561238d57fe5b9060005260206000209060020201600080820160006101000a81549063ffffffff02191690556000820160046101000a81549060ff02191690556000820160056101000a81549063ffffffff02191690556000820160096101000a81549060ff021916905560008201600a6101000a81549073ffffffffffffffffffffffffffffffffffffffff02191690556001820160006101000a81549073ffffffffffffffffffffffffffffffffffffffff0219169055505080806001019150506122ae565b5081600380549050036003816124659190614dd9565b505050565b600060038481548110151561247b57fe5b9060005260206000209060020201600001600a9054906101000a900473ffffffffffffffffffffffffffffffffffffffff1673ffffffffffffffffffffffffffffffffffffffff163373ffffffffffffffffffffffffffffffffffffffff161415156124e657600080fd5b8160ff166003858154811015156124f957fe5b906000526020600020906002020160000160049054906101000a900460ff1660ff1610151561252757600080fd5b8263ffffffff1660038581548110151561253d57fe5b906000526020600020906002020160000160009054906101000a900463ffffffff1663ffffffff161115151561257257600080fd5b60038481548110151561258157fe5b906000526020600020906002020160000160049054906101000a900460ff1660200360ff168363ffffffff16908060020a820491505063ffffffff166003858154811015156125cc57fe5b906000526020600020906002020160000160049054906101000a900460ff1660200360ff1660038681548110151561260057fe5b906000526020600020906002020160000160009054906101000a900463ffffffff1663ffffffff16908060020a820491505063ffffffff1614151561264457600080fd5b6060602060405190808252806020026020018201604052801561268157816020015b61266e614d4c565b8152602001906001900390816126665790505b509050600060038681548110151561269557fe5b906000526020600020906002020160000160009054906101000a900463ffffffff1690506000809050600080905060006005819055506000600160038a8154811015156126de57fe5b906000526020600020906002020160000160049054906101000a900460ff1688030360ff16905060008090505b60038a81548110151561271a57fe5b906000526020600020906002020160000160049054906101000a900460ff16880360ff168460ff161015612e4a5760006001808660038e81548110151561275d57fe5b906000526020600020906002020160000160049054906101000a900460ff16602003030360ff168b63ffffffff16908060020a82049150501663ffffffff161415612a58576127de8560018660038e8154811015156127b857fe5b906000526020600020906002020160000160049054906101000a900460ff160101611d4d565b86838151811015156127ec57fe5b906020019060200201516000019063ffffffff16908163ffffffff168152505060018460038c81548110151561281e57fe5b906000526020600020906002020160000160049054906101000a900460ff160101868381518110151561284d57fe5b906020019060200201516020019060ff16908160ff168152505060038a81548110151561287657fe5b906000526020600020906002020160000160059054906101000a900463ffffffff1686838151811015156128a657fe5b906020019060200201516040019063ffffffff16908163ffffffff168152505060038a8154811015156128d557fe5b906000526020600020906002020160000160099054906101000a900460ff16868381518110151561290257fe5b9060200190602002015160600190600381111561291b57fe5b9081600381111561292857fe5b8152505060038a81548110151561293b57fe5b9060005260206000209060020201600001600a9054906101000a900473ffffffffffffffffffffffffffffffffffffffff16868381518110151561297b57fe5b906020019060200201516080019073ffffffffffffffffffffffffffffffffffffffff16908173ffffffffffffffffffffffffffffffffffffffff168152505060038a8154811015156129ca57fe5b906000526020600020906002020160010160009054906101000a900473ffffffffffffffffffffffffffffffffffffffff168683815181101515612a0a57fe5b9060200190602002015160a0019073ffffffffffffffffffffffffffffffffffffffff16908173ffffffffffffffffffffffffffffffffffffffff1681525050818060019003925050612e3d565b600181141515612a6d57600190506001840192505b612aa98560018660038e815481101515612a8357fe5b906000526020600020906002020160000160049054906101000a900460ff160101611d4d565b94508486600554815181101515612abc57fe5b906020019060200201516000019063ffffffff16908163ffffffff168152505060018460038c815481101515612aee57fe5b906000526020600020906002020160000160049054906101000a900460ff16010186600554815181101515612b1f57fe5b906020019060200201516020019060ff16908160ff16815250505b600060018088600554815181101515612b4f57fe5b90602001906020020151602001516020030360ff168b63ffffffff16908060020a82049150501663ffffffff16148015612bab57508760ff1686600554815181101515612b9857fe5b906020019060200201516020015160ff16105b15612be45785600554815181101515612bc057fe5b90602001906020020151602001805180919060010160ff1660ff1681525050612b3a565b8760ff1686600554815181101515612bf857fe5b906020019060200201516020015160ff161015612c3f5785600554815181101515612c1f57fe5b90602001906020020151602001805180919060010160ff1660ff16815250505b60038a815481101515612c4e57fe5b906000526020600020906002020160000160059054906101000a900463ffffffff1686600554815181101515612c8057fe5b906020019060200201516040019063ffffffff16908163ffffffff168152505060038a815481101515612caf57fe5b906000526020600020906002020160000160099054906101000a900460ff1686600554815181101515612cde57fe5b90602001906020020151606001906003811115612cf757fe5b90816003811115612d0457fe5b8152505060038a815481101515612d1757fe5b9060005260206000209060020201600001600a9054906101000a900473ffffffffffffffffffffffffffffffffffffffff1686600554815181101515612d5957fe5b906020019060200201516080019073ffffffffffffffffffffffffffffffffffffffff16908173ffffffffffffffffffffffffffffffffffffffff168152505060038a815481101515612da857fe5b906000526020600020906002020160010160009054906101000a900473ffffffffffffffffffffffffffffffffffffffff1686600554815181101515612dea57fe5b9060200190602002015160a0019073ffffffffffffffffffffffffffffffffffffffff16908173ffffffffffffffffffffffffffffffffffffffff16815250506005600081548092919060010191905055505b838060010194505061270b565b8960055401600581905550612e958660038c815481101515612e6857fe5b906000526020600020906002020160000160049054906101000a900460ff168a0360ff1660018d016143dc565b6001811415612f0b578260038b815481101515612eae57fe5b906000526020600020906002020160000160049054906101000a900460ff160160038b815481101515612edd57fe5b906000526020600020906002020160000160046101000a81548160ff021916908360ff160217905550612f74565b8360038b815481101515612f1b57fe5b906000526020600020906002020160000160049054906101000a900460ff160160038b815481101515612f4a57fe5b906000526020600020906002020160000160046101000a81548160ff021916908360ff1602179055505b60055496505050505050509392505050565b6000809054906101000a900473ffffffffffffffffffffffffffffffffffffffff1673ffffffffffffffffffffffffffffffffffffffff163373ffffffffffffffffffffffffffffffffffffffff16141515613070576040517f08c379a00000000000000000000000000000000000000000000000000000000081526004018080602001828103825260278152602001807f4f6e6c79206f776e65724943414e4e2063616e2063616c6c207468697320667581526020017f6e6374696f6e2e0000000000000000000000000000000000000000000000000081525060400191505060405180910390fd5b60188160ff1611158015613088575060088160ff1610155b151561309357600080fd5b61309f8585858561364f565b600260006101000a81548163ffffffff021916908363ffffffff1602179055508060200360ff168160200360ff16600260009054906101000a900463ffffffff1663ffffffff16908060020a820491505063ffffffff169060020a02600260006101000a81548163ffffffff021916908363ffffffff1602179055506000613139600260009054906101000a900463ffffffff1683610b7e565b90506000811215151561314b57600080fd5b60008190506000809054906101000a900473ffffffffffffffffffffffffffffffffffffffff1660038281548110151561318157fe5b9060005260206000209060020201600001600a6101000a81548173ffffffffffffffffffffffffffffffffffffffff021916908373ffffffffffffffffffffffffffffffffffffffff1602179055507fe4b980b63efc3ee77906d958f18985028773db72816660a2ffc7de00afebfef5878787878760038781548110151561320557fe5b906000526020600020906002020160010160009054906101000a900473ffffffffffffffffffffffffffffffffffffffff16604051808760ff1660ff1681526020018660ff1660ff1681526020018560ff1660ff1681526020018460ff1660ff1681526020018360ff1660ff1681526020018273ffffffffffffffffffffffffffffffffffffffff1673ffffffffffffffffffffffffffffffffffffffff168152602001965050505050505060405180910390a16000809054906101000a900473ffffffffffffffffffffffffffffffffffffffff166003828154811015156132ea57fe5b906000526020600020906002020160010160006101000a81548173ffffffffffffffffffffffffffffffffffffffff021916908373ffffffffffffffffffffffffffffffffffffffff1602179055506003808281548110151561334957fe5b906000526020600020906002020160000160096101000a81548160ff0219169083600381111561337557fe5b0217905550613383816115ca565b5050505050505050565b6000809054906101000a900473ffffffffffffffffffffffffffffffffffffffff1681565b600080600090505b60038054905081101561363b578363ffffffff166003828154811015156133dd57fe5b906000526020600020906002020160000160009054906101000a900463ffffffff1663ffffffff16111561356a576000811415613427576000600481905550600454915050613649565b8363ffffffff1661349b60036001840381548110151561344357fe5b906000526020600020906002020160000160009054906101000a900463ffffffff1660036001850381548110151561347757fe5b906000526020600020906002020160000160049054906101000a900460ff16611d4d565b63ffffffff1611156134d9577fffffffffffffffffffffffffffffffffffffffffffffffffffffffffffffffff600481905550600454915050613649565b6003818154811015156134e857fe5b906000526020600020906002020160000160009054906101000a900463ffffffff1663ffffffff1661351a8585611d4d565b63ffffffff161115613558577fffffffffffffffffffffffffffffffffffffffffffffffffffffffffffffffff600481905550600454915050613649565b80600481905550600454915050613649565b8363ffffffff1660038281548110151561358057fe5b906000526020600020906002020160000160009054906101000a900463ffffffff1663ffffffff16141561362e578260ff166003828154811015156135c157fe5b906000526020600020906002020160000160049054906101000a900460ff1660ff1611151561361c577fffffffffffffffffffffffffffffffffffffffffffffffffffffffffffffffff600481905550600454915050613649565b80600481905550600454915050613649565b80806001019150506133ba565b806004819055506004549150505b92915050565b60008360ff166101008660ff160201600260006101000a81548163ffffffff021916908363ffffffff1602179055508260ff16610100600260009054906101000a900463ffffffff160201600260006101000a81548163ffffffff021916908363ffffffff1602179055508160ff16610100600260009054906101000a900463ffffffff160201600260006101000a81548163ffffffff021916908363ffffffff160217905550600260009054906101000a900463ffffffff169050949350505050565b600060188260ff161115801561372d575060088260ff1610155b151561373857600080fd5b6137448686868661364f565b600260006101000a81548163ffffffff021916908363ffffffff1602179055508160200360ff168260200360ff16600260009054906101000a900463ffffffff1663ffffffff16908060020a820491505063ffffffff169060020a02600260006101000a81548163ffffffff021916908363ffffffff16021790555060006137de600260009054906101000a900463ffffffff1684610b7e565b9050600081121515156137f057600080fd5b60008082905080600160008c63ffffffff1663ffffffff16815260200190815260200160002060030154141561382f5760019150819350505050613859565b7fffffffffffffffffffffffffffffffffffffffffffffffffffffffffffffffff91508193505050505b9695505050505050565b60188260ff161115801561387b575060088260ff1610155b151561388657600080fd5b6138928686868661364f565b600260006101000a81548163ffffffff021916908363ffffffff1602179055508160200360ff168260200360ff16600260009054906101000a900463ffffffff1663ffffffff16908060020a820491505063ffffffff169060020a02600260006101000a81548163ffffffff021916908363ffffffff160217905550600061392c600260009054906101000a900463ffffffff1684610b7e565b90506000811215151561393e57600080fd5b600081905060038181548110151561395257fe5b9060005260206000209060020201600001600a9054906101000a900473ffffffffffffffffffffffffffffffffffffffff1673ffffffffffffffffffffffffffffffffffffffff163373ffffffffffffffffffffffffffffffffffffffff16148015613a025750600260038111156139c657fe5b6003828154811015156139d557fe5b906000526020600020906002020160000160099054906101000a900460ff1660038111156139ff57fe5b14155b1515613a0d57600080fd5b600381815481101515613a1c57fe5b906000526020600020906002020160000160009054906101000a900463ffffffff1663ffffffff16600260009054906101000a900463ffffffff1663ffffffff16141580613a9d5750600381815481101515613a7457fe5b906000526020600020906002020160000160049054906101000a900460ff1660ff168460ff1614155b15613ac257613abf81600260009054906101000a900463ffffffff168661246a565b90505b82600382815481101515613ad257fe5b9060005260206000209060020201600001600a6101000a81548173ffffffffffffffffffffffffffffffffffffffff021916908373ffffffffffffffffffffffffffffffffffffffff16021790555082600382815481101515613b3157fe5b906000526020600020906002020160010160006101000a81548173ffffffffffffffffffffffffffffffffffffffff021916908373ffffffffffffffffffffffffffffffffffffffff1602179055506001600382815481101515613b9157fe5b906000526020600020906002020160000160096101000a81548160ff02191690836003811115613bbd57fe5b0217905550613bcb816115ca565b507f93252b8f211205bb61246372e06a83d352b6dba68443c1a223bfcd898def6956888888888888604051808760ff1660ff1681526020018660ff1660ff1681526020018560ff1660ff1681526020018460ff1660ff1681526020018360ff1660ff1681526020018273ffffffffffffffffffffffffffffffffffffffff1673ffffffffffffffffffffffffffffffffffffffff168152602001965050505050505060405180910390a15050505050505050565b60016020528060005260406000206000915090508060000160009054906101000a900473ffffffffffffffffffffffffffffffffffffffff16908060010160009054906101000a900473ffffffffffffffffffffffffffffffffffffffff16908060020154908060030154908060040154905085565b60008073ffffffffffffffffffffffffffffffffffffffff16600160008963ffffffff1663ffffffff16815260200190815260200160002060010160009054906101000a900473ffffffffffffffffffffffffffffffffffffffff1673ffffffffffffffffffffffffffffffffffffffff1614151515613d7457600080fd5b6000613d84888888888888613713565b90507fffffffffffffffffffffffffffffffffffffffffffffffffffffffffffffffff811415613db8576000915050613dbe565b60019150505b9695505050505050565b600160008363ffffffff1663ffffffff16815260200190815260200160002060000160009054906101000a900473ffffffffffffffffffffffffffffffffffffffff1673ffffffffffffffffffffffffffffffffffffffff163373ffffffffffffffffffffffffffffffffffffffff16141515613e4457600080fd5b60008130613e50614dc9565b808373ffffffffffffffffffffffffffffffffffffffff1673ffffffffffffffffffffffffffffffffffffffff1681526020018273ffffffffffffffffffffffffffffffffffffffff1673ffffffffffffffffffffffffffffffffffffffff16815260200192505050604051809103906000f080158015613ed5573d6000803e3d6000fd5b50905080600160008563ffffffff1663ffffffff16815260200190815260200160002060010160006101000a81548173ffffffffffffffffffffffffffffffffffffffff021916908373ffffffffffffffffffffffffffffffffffffffff16021790555081600160008563ffffffff1663ffffffff16815260200190815260200160002060000160006101000a81548173ffffffffffffffffffffffffffffffffffffffff021916908373ffffffffffffffffffffffffffffffffffffffff16021790555042600160008563ffffffff1663ffffffff168152602001908152602001600020600201819055506101f4600160008563ffffffff1663ffffffff16815260200190815260200160002060040181905550505050565b6000600160008363ffffffff1663ffffffff16815260200190815260200160002060010160009054906101000a900473ffffffffffffffffffffffffffffffffffffffff169050919050565b60188260ff1611158015614053575060088260ff1610155b151561405e57600080fd5b61406a8686868661364f565b600260006101000a81548163ffffffff021916908363ffffffff1602179055508160200360ff168260200360ff16600260009054906101000a900463ffffffff1663ffffffff16908060020a820491505063ffffffff169060020a02600260006101000a81548163ffffffff021916908363ffffffff1602179055506000614104600260009054906101000a900463ffffffff16846133b2565b90506000811215151561411657600080fd5b600081905060038181548110151561412a57fe5b9060005260206000209060020201600001600a9054906101000a900473ffffffffffffffffffffffffffffffffffffffff1673ffffffffffffffffffffffffffffffffffffffff163373ffffffffffffffffffffffffffffffffffffffff1614151561419557600080fd5b6003818154811015156141a457fe5b906000526020600020906002020160000160009054906101000a900463ffffffff1663ffffffff16600260009054906101000a900463ffffffff1663ffffffff1614158061422557506003818154811015156141fc57fe5b906000526020600020906002020160000160049054906101000a900460ff1660ff168460ff1614155b1561424a5761424781600260009054906101000a900463ffffffff168661246a565b90505b8260038281548110151561425a57fe5b906000526020600020906002020160010160006101000a81548173ffffffffffffffffffffffffffffffffffffffff021916908373ffffffffffffffffffffffffffffffffffffffff16021790555060026003828154811015156142ba57fe5b906000526020600020906002020160000160096101000a81548160ff021916908360038111156142e657fe5b02179055506142f4816115ca565b507f23a59e5f0c98232040d91a6e3d542406f56853e5e38d6b197f57bdbf968c9d2d33898989898989604051808873ffffffffffffffffffffffffffffffffffffffff1673ffffffffffffffffffffffffffffffffffffffff1681526020018760ff1660ff1681526020018660ff1660ff1681526020018560ff1660ff1681526020018460ff1660ff1681526020018360ff1660ff1681526020018273ffffffffffffffffffffffffffffffffffffffff1673ffffffffffffffffffffffffffffffffffffffff16815260200197505050505050505060405180910390a15050505050505050565b60008090505b8281101561469157600360c060405190810160405280868481518110151561440657fe5b906020019060200201516000015163ffffffff168152602001868481518110151561442d57fe5b906020019060200201516020015160ff168152602001868481518110151561445157fe5b906020019060200201516040015163ffffffff168152602001868481518110151561447857fe5b9060200190602002015160600151600381111561449157fe5b815260200186848151811015156144a457fe5b906020019060200201516080015173ffffffffffffffffffffffffffffffffffffffff16815260200186848151811015156144db57fe5b9060200190602002015160a0015173ffffffffffffffffffffffffffffffffffffffff168152509080600181540180825580915050906001820390600052602060002090600202016000909192909190915060008201518160000160006101000a81548163ffffffff021916908363ffffffff16021790555060208201518160000160046101000a81548160ff021916908360ff16021790555060408201518160000160056101000a81548163ffffffff021916908363ffffffff16021790555060608201518160000160096101000a81548160ff021916908360038111156145c057fe5b0217905550608082015181600001600a6101000a81548173ffffffffffffffffffffffffffffffffffffffff021916908373ffffffffffffffffffffffffffffffffffffffff16021790555060a08201518160010160006101000a81548173ffffffffffffffffffffffffffffffffffffffff021916908373ffffffffffffffffffffffffffffffffffffffff160217905550505050614683848281518110151561466757fe5b9060200190602002015160400151600160038054905003611e10565b5080806001019150506143e2565b600060016003805490500390505b838301811015156149f15760038482038154811015156146bb57fe5b906000526020600020906002020160000160009054906101000a900463ffffffff166003828154811015156146ec57fe5b906000526020600020906002020160000160006101000a81548163ffffffff021916908363ffffffff160217905550600384820381548110151561472c57fe5b906000526020600020906002020160000160049054906101000a900460ff1660038281548110151561475a57fe5b906000526020600020906002020160000160046101000a81548160ff021916908360ff160217905550600384820381548110151561479457fe5b906000526020600020906002020160000160059054906101000a900463ffffffff166003828154811015156147c557fe5b906000526020600020906002020160000160056101000a81548163ffffffff021916908363ffffffff160217905550600384820381548110151561480557fe5b906000526020600020906002020160000160099054906101000a900460ff1660038281548110151561483357fe5b906000526020600020906002020160000160096101000a81548160ff0219169083600381111561485f57fe5b0217905550600384820381548110151561487557fe5b9060005260206000209060020201600001600a9054906101000a900473ffffffffffffffffffffffffffffffffffffffff166003828154811015156148b657fe5b9060005260206000209060020201600001600a6101000a81548173ffffffffffffffffffffffffffffffffffffffff021916908373ffffffffffffffffffffffffffffffffffffffff160217905550600384820381548110151561491657fe5b906000526020600020906002020160010160009054906101000a900473ffffffffffffffffffffffffffffffffffffffff1660038281548110151561495757fe5b906000526020600020906002020160010160006101000a81548173ffffffffffffffffffffffffffffffffffffffff021916908373ffffffffffffffffffffffffffffffffffffffff1602179055506149e260038583038154811015156149ba57fe5b906000526020600020906002020160000160059054906101000a900463ffffffff1682611e10565b5080806001900391505061469f565b508190505b828201811015614d46576003828203815481101515614a1157fe5b906000526020600020906002020160000160009054906101000a900463ffffffff16600382815481101515614a4257fe5b906000526020600020906002020160000160006101000a81548163ffffffff021916908363ffffffff1602179055506003828203815481101515614a8257fe5b906000526020600020906002020160000160049054906101000a900460ff16600382815481101515614ab057fe5b906000526020600020906002020160000160046101000a81548160ff021916908360ff1602179055506003828203815481101515614aea57fe5b906000526020600020906002020160000160059054906101000a900463ffffffff16600382815481101515614b1b57fe5b906000526020600020906002020160000160056101000a81548163ffffffff021916908363ffffffff1602179055506003828203815481101515614b5b57fe5b906000526020600020906002020160000160099054906101000a900460ff16600382815481101515614b8957fe5b906000526020600020906002020160000160096101000a81548160ff02191690836003811115614bb557fe5b02179055506003828203815481101515614bcb57fe5b9060005260206000209060020201600001600a9054906101000a900473ffffffffffffffffffffffffffffffffffffffff16600382815481101515614c0c57fe5b9060005260206000209060020201600001600a6101000a81548173ffffffffffffffffffffffffffffffffffffffff021916908373ffffffffffffffffffffffffffffffffffffffff1602179055506003828203815481101515614c6c57fe5b906000526020600020906002020160010160009054906101000a900473ffffffffffffffffffffffffffffffffffffffff16600382815481101515614cad57fe5b906000526020600020906002020160010160006101000a81548173ffffffffffffffffffffffffffffffffffffffff021916908373ffffffffffffffffffffffffffffffffffffffff160217905550614d386003838303815481101515614d1057fe5b906000526020600020906002020160000160059054906101000a900463ffffffff1682611e10565b5080806001019150506149f6565b50505050565b60c060405190810160405280600063ffffffff168152602001600060ff168152602001600063ffffffff16815260200160006003811115614d8957fe5b8152602001600073ffffffffffffffffffffffffffffffffffffffff168152602001600073ffffffffffffffffffffffffffffffffffffffff1681525090565b60405161153080614ecf83390190565b815481835581811115614e0657600202816002028360005260206000209182019101614e059190614e0b565b5b505050565b614ecb91905b80821115614ec757600080820160006101000a81549063ffffffff02191690556000820160046101000a81549060ff02191690556000820160056101000a81549063ffffffff02191690556000820160096101000a81549060ff021916905560008201600a6101000a81549073ffffffffffffffffffffffffffffffffffffffff02191690556001820160006101000a81549073ffffffffffffffffffffffffffffffffffffffff021916905550600201614e11565b5090565b9056fe60806040526040516040806115308339810180604052604081101561002357600080fd5b810190808051906020019092919080519060200190929190505050816000806101000a81548173ffffffffffffffffffffffffffffffffffffffff021916908373ffffffffffffffffffffffffffffffffffffffff16021790555081600160006101000a81548173ffffffffffffffffffffffffffffffffffffffff021916908373ffffffffffffffffffffffffffffffffffffffff16021790555033600260006101000a81548173ffffffffffffffffffffffffffffffffffffffff021916908373ffffffffffffffffffffffffffffffffffffffff16021790555080600360006101000a81548173ffffffffffffffffffffffffffffffffffffffff021916908373ffffffffffffffffffffffffffffffffffffffff1602179055506000600260146101000a81548160ff02191690831515021790555050506113c38061016d6000396000f3fe6080604052600436106100ba576000357c0100000000000000000000000000000000000000000000000000000000900463ffffffff1680630783dc1b146100bf578063216e2855146101005780632f2770db1461015b5780635c60627c14610172578063649b24881461025f5780636c57f5a9146102b65780637816775d146102e55780637b10399914610340578063824982f414610397578063897ffb45146103ee578063a3907d711461050c578063bb82140014610523575b600080fd5b3480156100cb57600080fd5b506100fe600480360360208110156100e257600080fd5b81019080803563ffffffff16906020019092919050505061057c565b005b34801561010c57600080fd5b506101596004803603606081101561012357600080fd5b81019080803563ffffffff169060200190929190803560ff169060200190929190803560ff1690602001909291905050506106a7565b005b34801561016757600080fd5b50610170610851565b005b34801561017e57600080fd5b506102456004803603604081101561019557600080fd5b81019080803590602001906401000000008111156101b257600080fd5b8201836020820111156101c457600080fd5b803590602001918460208302840111640100000000831117156101e657600080fd5b919080806020026020016040519081016040528093929190818152602001838360200280828437600081840152601f19601f820116905080830192505050505050509192919290803563ffffffff1690602001909291905050506108c9565b604051808215151515815260200191505060405180910390f35b34801561026b57600080fd5b50610274610a53565b604051808273ffffffffffffffffffffffffffffffffffffffff1673ffffffffffffffffffffffffffffffffffffffff16815260200191505060405180910390f35b3480156102c257600080fd5b506102cb610a79565b604051808215151515815260200191505060405180910390f35b3480156102f157600080fd5b506103246004803603602081101561030857600080fd5b81019080803563ffffffff169060200190929190505050610a90565b604051808260ff1660ff16815260200191505060405180910390f35b34801561034c57600080fd5b50610355610ac9565b604051808273ffffffffffffffffffffffffffffffffffffffff1673ffffffffffffffffffffffffffffffffffffffff16815260200191505060405180910390f35b3480156103a357600080fd5b506103ac610aef565b604051808273ffffffffffffffffffffffffffffffffffffffff1673ffffffffffffffffffffffffffffffffffffffff16815260200191505060405180910390f35b3480156103fa57600080fd5b506104f2600480360360c081101561041157600080fd5b81019080803560ff169060200190929190803560ff169060200190929190803560ff169060200190929190803560ff169060200190929190803560ff1690602001909291908035906020019064010000000081111561046f57600080fd5b82018360208201111561048157600080fd5b803590602001918460208302840111640100000000831117156104a357600080fd5b919080806020026020016040519081016040528093929190818152602001838360200280828437600081840152601f19601f820116905080830192505050505050509192919290505050610b19565b604051808215151515815260200191505060405180910390f35b34801561051857600080fd5b506105216112d5565b005b34801561052f57600080fd5b506105626004803603602081101561054657600080fd5b81019080803563ffffffff16906020019092919050505061134d565b604051808215151515815260200191505060405180910390f35b600160009054906101000a900473ffffffffffffffffffffffffffffffffffffffff1673ffffffffffffffffffffffffffffffffffffffff163373ffffffffffffffffffffffffffffffffffffffff16148061062457506000809054906101000a900473ffffffffffffffffffffffffffffffffffffffff1673ffffffffffffffffffffffffffffffffffffffff163373ffffffffffffffffffffffffffffffffffffffff16145b151561062f57600080fd5b600460008263ffffffff1663ffffffff168152602001908152602001600020600080820160006101000a81549063ffffffff02191690556000820160046101000a81549060ff02191690556000820160056101000a81549060ff02191690556000820160066101000a81549060ff0219169055505050565b600160009054906101000a900473ffffffffffffffffffffffffffffffffffffffff1673ffffffffffffffffffffffffffffffffffffffff163373ffffffffffffffffffffffffffffffffffffffff16148061074f57506000809054906101000a900473ffffffffffffffffffffffffffffffffffffffff1673ffffffffffffffffffffffffffffffffffffffff163373ffffffffffffffffffffffffffffffffffffffff16145b151561075a57600080fd5b82600460008563ffffffff1663ffffffff16815260200190815260200160002060000160006101000a81548163ffffffff021916908363ffffffff1602179055506001600460008563ffffffff1663ffffffff16815260200190815260200160002060000160056101000a81548160ff02191690831515021790555081600460008563ffffffff1663ffffffff16815260200190815260200160002060000160046101000a81548160ff021916908360ff16021790555080600460008563ffffffff1663ffffffff16815260200190815260200160002060000160066101000a81548160ff021916908360ff160217905550505050565b6000809054906101000a900473ffffffffffffffffffffffffffffffffffffffff1673ffffffffffffffffffffffffffffffffffffffff163373ffffffffffffffffffffffffffffffffffffffff161415156108ac57600080fd5b6001600260146101000a81548160ff021916908315150217905550565b600080600460008463ffffffff1663ffffffff16815260200190815260200160002060000160069054906101000a900460ff16905060006001905060008260ff1614156109625760008090505b855181101561095c576000868281518110151561092f57fe5b9060200190602002015160ff1614151561094f5760009350505050610a4d565b8080600101915050610916565b50610a46565b60018260ff1614156109c1576000600190505b85518110156109bb576000868281518110151561098e57fe5b9060200190602002015160ff161415156109ae5760009350505050610a4d565b8080600101915050610975565b50610a45565b60008090505b8551811015610a43576001821415610a06578186828151811015156109e857fe5b9060200190602002015160ff16141515610a0157600091505b610a36565b818682815181101515610a1557fe5b9060200190602002015160ff16141515610a355760009350505050610a4d565b5b80806001019150506109c7565b505b5b6001925050505b92915050565b600360009054906101000a900473ffffffffffffffffffffffffffffffffffffffff1681565b6000600260149054906101000a900460ff16905090565b6000600460008363ffffffff1663ffffffff16815260200190815260200160002060000160049054906101000a900460ff169050919050565b600260009054906101000a900473ffffffffffffffffffffffffffffffffffffffff1681565b6000600360009054906101000a900473ffffffffffffffffffffffffffffffffffffffff16905090565b6000600160009054906101000a900473ffffffffffffffffffffffffffffffffffffffff1673ffffffffffffffffffffffffffffffffffffffff163373ffffffffffffffffffffffffffffffffffffffff161480610bc357506000809054906101000a900473ffffffffffffffffffffffffffffffffffffffff1673ffffffffffffffffffffffffffffffffffffffff163373ffffffffffffffffffffffffffffffffffffffff16145b1515610bce57600080fd5b600082519050606081604051908082528060200260200182016040528015610c055781602001602082028038833980820191505090505b50905060008460018403815181101515610c1b57fe5b90602001906020020151905060046000866001815181101515610c3a57fe5b9060200190602002015163ffffffff1663ffffffff16815260200190815260200160002060000160049054906101000a900460ff16826000815181101515610c7e57fe5b9060200190602002019060ff16908160ff16815250506000600360009054906101000a900473ffffffffffffffffffffffffffffffffffffffff16905060008173ffffffffffffffffffffffffffffffffffffffff1663c2b8c205848e8e8e8e8e6040518763ffffffff167c0100000000000000000000000000000000000000000000000000000000028152600401808763ffffffff1663ffffffff1681526020018660ff1660ff1681526020018560ff1660ff1681526020018460ff1660ff1681526020018360ff1660ff1681526020018260ff1660ff1681526020019650505050505050602060405180830381600087803b158015610d7e57600080fd5b505af1158015610d92573d6000803e3d6000fd5b505050506040513d6020811015610da857600080fd5b81019080805190602001909291905050509050600115158115151415611293576000600190505b8581101561128d5760008882815181101515610de757fe5b90602001906020020151905060008473ffffffffffffffffffffffffffffffffffffffff1663e4d5c984836040518263ffffffff167c0100000000000000000000000000000000000000000000000000000000028152600401808263ffffffff1663ffffffff16815260200191505060206040518083038186803b158015610e6e57600080fd5b505afa158015610e82573d6000803e3d6000fd5b505050506040513d6020811015610e9857600080fd5b81019080805190602001909291905050509050600081905060018903841415156111895760008173ffffffffffffffffffffffffffffffffffffffff1663bb8214008d60018803815181101515610eeb57fe5b906020019060200201516040518263ffffffff167c0100000000000000000000000000000000000000000000000000000000028152600401808263ffffffff1663ffffffff16815260200191505060206040518083038186803b158015610f5157600080fd5b505afa158015610f65573d6000803e3d6000fd5b505050506040513d6020811015610f7b57600080fd5b8101908080519060200190929190505050905060008273ffffffffffffffffffffffffffffffffffffffff1663bb8214008e60018901815181101515610fbd57fe5b906020019060200201516040518263ffffffff167c0100000000000000000000000000000000000000000000000000000000028152600401808263ffffffff1663ffffffff16815260200191505060206040518083038186803b15801561102357600080fd5b505afa158015611037573d6000803e3d6000fd5b505050506040513d602081101561104d57600080fd5b810190808051906020019092919050505090508273ffffffffffffffffffffffffffffffffffffffff16637816775d8e6001890181518110151561108d57fe5b906020019060200201516040518263ffffffff167c0100000000000000000000000000000000000000000000000000000000028152600401808263ffffffff1663ffffffff16815260200191505060206040518083038186803b1580156110f357600080fd5b505afa158015611107573d6000803e3d6000fd5b505050506040513d602081101561111d57600080fd5b81019080805190602001909291905050508a8781518110151561113c57fe5b9060200190602002019060ff16908160ff1681525050600015158215151480611169575060001515811515145b156111825760009b5050505050505050505050506112cb565b505061127d565b60008173ffffffffffffffffffffffffffffffffffffffff1663bb8214008d600188038151811015156111b857fe5b906020019060200201516040518263ffffffff167c0100000000000000000000000000000000000000000000000000000000028152600401808263ffffffff1663ffffffff16815260200191505060206040518083038186803b15801561121e57600080fd5b505afa158015611232573d6000803e3d6000fd5b505050506040513d602081101561124857600080fd5b8101908080519060200190929190505050905060001515811515141561127b5760009a50505050505050505050506112cb565b505b5050508080600101915050610dcf565b506112a1565b6000955050505050506112cb565b6112c3848860018151811015156112b457fe5b906020019060200201516108c9565b955050505050505b9695505050505050565b6000809054906101000a900473ffffffffffffffffffffffffffffffffffffffff1673ffffffffffffffffffffffffffffffffffffffff163373ffffffffffffffffffffffffffffffffffffffff1614151561133057600080fd5b6000600260146101000a81548160ff021916908315150217905550565b6000600460008363ffffffff1663ffffffff16815260200190815260200160002060000160059054906101000a900460ff161561138d5760019050611392565b600090505b91905056fea165627a7a7230582076251eebfc0640d80af06abbf7417c4bca270b5e9dd889a1888f428303f915ae0029a165627a7a72305820d2c0ab55cce4ebf02951ec21b9550b1a1a90b50550baec1600b8c5834d18d9450029",
  "source": "pragma solidity >=0.4.22 <0.6.0;\r\nimport \"./ASIcontract.sol\";\r\n\r\ncontract IRMcontract {\r\n    address public ownerICANN;\r\n\r\n    constructor() public payable{\r\n        ownerICANN = msg.sender;\r\n    }\r\n\r\n    modifier onlyOwnerICANN(){\r\n        require(msg.sender == ownerICANN ,\"Only ownerICANN can call this function.\");\r\n        _;\r\n    }\r\n\r\n    struct IPB \r\n    {\r\n        uint32 IPstr; //IP\r\n        uint8 wNum; //8~24\r\n        uint32 ASN;\r\n\t    State state;\r\n        address owner;\r\n        address lease;\r\n    }\r\n\r\n    struct ASNData\r\n    {\r\n        address owner;\r\n        address asiContract; //ASI\r\n        //IPB[] IPBlock;\r\n        uint stime;\r\n        uint IPBindex;\r\n        uint period;\r\n    }\r\n    \r\n    event Register\r\n    (\r\n    \tuint8 ipStr1,\r\n    \tuint8 ipStr2,\r\n    \tuint8 ipStr3,\r\n    \tuint8 ipStr4,\r\n    \tuint8 wNum\r\n    );\r\n    \r\n    event Delegate\r\n    (\r\n        uint8 ipStr1,\r\n    \tuint8 ipStr2,\r\n    \tuint8 ipStr3,\r\n    \tuint8 ipStr4,\r\n    \tuint8 wNum,\r\n    \taddress delegatee\r\n    );\r\n    \r\n    event Allocate\r\n    (\r\n        address owner,\r\n        uint8 ipStr1,\r\n    \tuint8 ipStr2,\r\n    \tuint8 ipStr3,\r\n    \tuint8 ipStr4,\r\n    \tuint8 wNum,\r\n    \taddress lease\r\n    );\r\n    \r\n    event Revoke\r\n    (\r\n        uint8 ipStr1,\r\n    \tuint8 ipStr2,\r\n    \tuint8 ipStr3,\r\n    \tuint8 ipStr4,\r\n    \tuint8 wNum,\r\n    \taddress lease    \r\n    );\r\n    \r\n    mapping(uint32 => ASNData) public ROA;\r\n    \r\n    //register AS and create ASIcontract\r\n    function registerAS(uint32 ASN) public payable onlyOwnerICANN \r\n    {\r\n        require (address(ROA[ASN].owner) == address(0));\r\n\r\n        ASIcontract asi = new ASIcontract(ownerICANN,address(this));\r\n        ROA[ASN].asiContract = address(asi);\r\n\t    ROA[ASN].owner = ownerICANN;\r\n\t    ROA[ASN].stime = now;\r\n        ROA[ASN].period = 500;\r\n\r\n    }\r\n    \r\n    function getASI(uint32 ASN) public view returns (address){\r\n         \r\n        return ROA[ASN].asiContract;\r\n    }\r\n    \r\n    \r\n    function updateAS(uint32 ASN, uint IPBindex) public returns(bool success)\r\n    {\r\n        require((msg.sender == ROA[ASN].owner) && (msg.sender == currentIPBs[IPBindex].owner));\r\n        ROA[ASN].IPBindex = IPBindex;\r\n        return true;\r\n    }\r\n    \r\n    //allocate AS and create ASIcontract\r\n    function allocateAS(uint32 ASN, address ASowner) public \r\n    {\r\n        require(msg.sender == ROA[ASN].owner) ;\r\n        ASIcontract asi = new ASIcontract(ASowner,address(this));\r\n        ROA[ASN].asiContract = address(asi);\r\n\t    ROA[ASN].owner = ASowner;\r\n\t    ROA[ASN].stime = now;\r\n        ROA[ASN].period = 500;\r\n        //ROA[ASN].asiContract = new ASI(ASowner);\r\n        //ASI asi = new ASI(ASowner);\r\n        //ROA[ASN].asiContract = asi;\r\n    }\r\n    \r\n    uint32 IP_str;\r\n    IPB[] public currentIPBs;\r\n    int flag;\r\n    uint index_d;\r\n    enum State {Registered, Delegated, Allocated, Revoked}\r\n\r\n    function covertIP(uint8 ipStr1, uint8 ipStr2, uint8 ipStr3, uint8 ipStr4) public returns (uint32)\r\n    {\r\n        IP_str = uint32(ipStr1)*256+uint32(ipStr2);\r\n        IP_str = IP_str*256+uint32(ipStr3);\r\n        IP_str = IP_str*256+uint32(ipStr4);\r\n\r\n        return IP_str;\r\n    }\r\n    \r\n    /*function covertfromIP() public view returns (uint8 ipStr1, uint8 ipStr2, uint8 ipStr3, uint8 ipStr4) \r\n    {\r\n    \tipStr4 = uint8 (IP_str) & uint8(255);\r\n    \tipStr3 = uint8 (IP_str >> 8) & uint8(255);\r\n    \tipStr2 = uint8 (IP_str >> 16) & uint8(255);\r\n    \tipStr1 = uint8 (IP_str >> 24) & uint8(255);\r\n    }*/\r\n    \r\n    function IPB_next(uint32 str_ip,uint8 w_num) public returns (uint32)\r\n    {\r\n        IP_str = str_ip >> (uint (32 - w_num));\r\n        IP_str++;\r\n        IP_str = str_ip << (uint (32 - w_num));\r\n        return IP_str;\r\n    }\r\n    \r\n    function IPB_check(uint32 ip_str,uint8 w_num) public returns(int)\r\n    {\r\n        for (uint i = 0; i < currentIPBs.length; i++)\r\n\t\t {\r\n\t\t\tif (currentIPBs[i].IPstr > ip_str)\r\n\t\t\t\t{\r\n\t\t\t\t\tif (IPB_next(currentIPBs[i-1].IPstr,currentIPBs[i-1].wNum) > ip_str)\r\n\t\t\t\t\t{\r\n                        flag = int (i-1);\r\n\t\t\t\t\t\treturn flag;\r\n\t\t\t\t\t}\r\n\t\t\t\t\telse if (IPB_next(ip_str,w_num) > currentIPBs[i].IPstr)\r\n\t\t\t\t\t{\r\n                        flag=-1;\r\n\t\t\t\t\t\treturn flag;\r\n\t\t\t\t\t}\r\n\t\t\t\t\telse\r\n\t\t\t\t\t{\r\n                        flag=-1;\r\n                        return flag;\r\n\t\t\t\t\t}\r\n\t\t\t\t}\r\n            else if ((currentIPBs[i].IPstr == ip_str))\r\n            {\r\n                if(currentIPBs[i].wNum > w_num)\r\n                {\r\n                    flag=-1;\r\n                    return flag;\r\n                }else\r\n                {\r\n                    flag=int (i);\r\n                    return flag;\r\n                }\r\n            }\r\n\t\t}\r\n        flag=-1;\r\n\t\treturn flag;\r\n\t}\r\n    \r\n    function IPB_exist(uint32 ip_str,uint8 w_num) public returns (int)\r\n    {\r\n        uint i;\r\n\t    for(i = 0; i < currentIPBs.length; i++)\r\n\t    {\r\n\t        if(currentIPBs[i].IPstr > ip_str)\r\n\t        {\r\n\t            if(i==0)\r\n\t            {\r\n\t                flag = 0;\r\n\t                return flag;\r\n\t            }else if(IPB_next(currentIPBs[i-1].IPstr,currentIPBs[i-1].wNum) > ip_str)\r\n\t            {\r\n\t                flag = -1;\r\n\t                return flag;\r\n\t            }else if(IPB_next(ip_str,w_num) > currentIPBs[i].IPstr)\r\n\t            {\r\n\t                flag = -1;\r\n\t                return flag;\r\n\t            }else\r\n\t            {\r\n\t                flag = int(i);\r\n\t                return flag;\r\n\t            }\r\n\t        }else if(currentIPBs[i].IPstr == ip_str)\r\n\t        {\r\n\t            if(currentIPBs[i].wNum <= w_num)\r\n\t            {\r\n\t                flag = -1;\r\n\t                return flag;\r\n\t            }else\r\n\t            {\r\n\t                flag = int(i);\r\n\t                return flag;\r\n\t            }\r\n\t        }\r\n\t    }\r\n\t    flag = int(i);\r\n\t    return flag;\r\n    }\r\n    \r\n    function IPB_divide(uint index, uint32 ip_str, uint8 w_num) public returns (uint)\r\n    {\r\n        require(msg.sender == currentIPBs[index].owner);\r\n        require(currentIPBs[index].wNum < w_num);\r\n        require(currentIPBs[index].IPstr <= ip_str);\r\n        require(currentIPBs[index].IPstr >> (32 - currentIPBs[index].wNum) == (ip_str >> (32 - currentIPBs[index].wNum)));\r\n        \r\n        IPB[] memory IPBadd = new IPB[](32);\r\n        uint32 indexIP = currentIPBs[index].IPstr;\r\n        uint8 i = 0;\r\n        uint8 new_wnum = 0;\r\n\t\tindex_d = 0;\r\n        uint index_x = w_num-currentIPBs[index].wNum-1;\r\n        int flagd = 0;\r\n\t\twhile(i < w_num - currentIPBs[index].wNum)\r\n\t\t{\r\n\t\t\tif((ip_str >> (32 - currentIPBs[index].wNum-i-1)) & 1 == 0)\r\n\t\t\t{\r\n\t\t\t\tIPBadd[index_x].IPstr = IPB_next(indexIP,currentIPBs[index].wNum+i+1);\r\n\t\t\t\tIPBadd[index_x].wNum = currentIPBs[index].wNum+i+1;\r\n\t\t\t\tIPBadd[index_x].ASN = currentIPBs[index].ASN;\r\n\t\t\t\tIPBadd[index_x].state = currentIPBs[index].state;\r\n\t\t\t\tIPBadd[index_x].owner = currentIPBs[index].owner;\r\n\t\t\t\tIPBadd[index_x].lease = currentIPBs[index].lease;\r\n                index_x--;\r\n\t\t\t}\r\n\t\t\telse\r\n\t\t\t{\r\n                if(flagd != 1)\r\n                {\r\n                    flagd = 1;\r\n                    new_wnum = i + 1;\r\n                }\r\n                \r\n                indexIP = IPB_next(indexIP,currentIPBs[index].wNum + i + 1);\r\n        \t\tIPBadd[index_d].IPstr = indexIP;\r\n        \t\tIPBadd[index_d].wNum = currentIPBs[index].wNum + i + 1;\r\n        \t\t\r\n                while(((ip_str >> (32 - IPBadd[index_d].wNum - 1)) & 1 == 0) && (IPBadd[index_d].wNum < w_num))\r\n                {\r\n                    IPBadd[index_d].wNum++;\r\n                }\r\n                \r\n                if(IPBadd[index_d].wNum < w_num)\r\n                {\r\n                    IPBadd[index_d].wNum++;\r\n                }\r\n                \r\n                IPBadd[index_d].ASN=currentIPBs[index].ASN;\r\n\t\t\t\tIPBadd[index_d].state=currentIPBs[index].state;\r\n\t\t\t\tIPBadd[index_d].owner=currentIPBs[index].owner;\r\n\t\t\t\tIPBadd[index_d].lease=currentIPBs[index].lease;\r\n                index_d++;\r\n\t\t\t}\r\n            i++;\r\n\t\t}\r\n\t\tindex_d = index_d + index;\r\n        IPB_add(IPBadd,w_num-currentIPBs[index].wNum,index+1);\r\n        if(flagd == 1)\r\n        {\r\n            currentIPBs[index].wNum = currentIPBs[index].wNum + new_wnum;\r\n        }\r\n        else \r\n        {\r\n            currentIPBs[index].wNum = currentIPBs[index].wNum+i;\r\n        }\r\n        return index_d;\r\n\t}\r\n    \r\n    //IPB_add\r\n    function IPB_add(IPB[] memory add_IPB,uint num,uint unum) internal \r\n    {\r\n        uint i;\r\n    \tfor( i = 0;i < num; i++)\r\n    \t{\r\n    \t    currentIPBs.push(IPB(add_IPB[i].IPstr,add_IPB[i].wNum,add_IPB[i].ASN,add_IPB[i].state,add_IPB[i].owner,add_IPB[i].lease));\r\n    \t    updateAS(add_IPB[i].ASN,currentIPBs.length-1);\r\n    \t}\r\n    \t\r\n    \tfor(uint j = currentIPBs.length-1; j >= unum + num; j--)\r\n    \t{\r\n    \t    currentIPBs[j].IPstr = currentIPBs[j - num].IPstr;\r\n    \t    currentIPBs[j].wNum = currentIPBs[j - num].wNum;\r\n    \t    currentIPBs[j].ASN = currentIPBs[j - num].ASN;\r\n    \t    currentIPBs[j].state = currentIPBs[j - num].state;\r\n    \t    currentIPBs[j].owner = currentIPBs[j - num].owner;\r\n    \t    currentIPBs[j].lease = currentIPBs[j - num].lease;\r\n            updateAS(currentIPBs[j - num].ASN,j);\r\n    \t}\r\n    \t\r\n        for( i = unum; i < unum + num; i++)\r\n        {\r\n            currentIPBs[i].IPstr = currentIPBs[i - unum].IPstr;\r\n    \t    currentIPBs[i].wNum = currentIPBs[i - unum].wNum;\r\n    \t    currentIPBs[i].ASN = currentIPBs[i - unum].ASN;\r\n    \t    currentIPBs[i].state = currentIPBs[i - unum].state;\r\n    \t    currentIPBs[i].owner = currentIPBs[i - unum].owner;\r\n    \t    currentIPBs[i].lease = currentIPBs[i - unum].lease;\r\n    \t    updateAS(currentIPBs[i - unum].ASN,i);\r\n        }\r\n    }\r\n    //IPB_delete\r\n    function IPB_min(uint num, uint unum) public\r\n    {\r\n        require((num + unum) <= currentIPBs.length);\r\n        for(uint i = num + unum; i < currentIPBs.length; i++)\r\n        {\r\n            currentIPBs[i-num].IPstr = currentIPBs[i].IPstr;\r\n            currentIPBs[i-num].wNum = currentIPBs[i].wNum;\r\n            currentIPBs[i-num].ASN = currentIPBs[i].ASN;\r\n            currentIPBs[i-num].state = currentIPBs[i].state;\r\n            currentIPBs[i-num].owner = currentIPBs[i].owner;\r\n            currentIPBs[i-num].lease = currentIPBs[i].lease;\r\n            updateAS(currentIPBs[i].ASN,i-num);\r\n        }\r\n        \r\n        for(uint j = 0; j < num; j++)\r\n        {\r\n            delete ROA[currentIPBs[currentIPBs.length-1].ASN];\r\n            delete currentIPBs[currentIPBs.length-1];\r\n        }\r\n        \r\n        currentIPBs.length = currentIPBs.length - num;\r\n    }\r\n    \r\n    function IPB_update(uint updatenum) public returns (uint)\r\n    {\r\n        uint index = updatenum;\r\n        bool flag1 = true;\r\n        bool flag2 = true;\r\n        while(flag1 || flag2)\r\n        {\r\n            if((index > 0) && (IPB_next(currentIPBs[index-1].IPstr,currentIPBs[index-1].wNum)==currentIPBs[index+1].IPstr) \r\n            && (currentIPBs[index-1].wNum == currentIPBs[index].wNum)\r\n            && (currentIPBs[index-1].ASN == currentIPBs[index].ASN)\r\n            && (currentIPBs[index-1].owner == currentIPBs[index].owner)\r\n            && (currentIPBs[index-1].lease == currentIPBs[index].lease)\r\n            ){\r\n                currentIPBs[index-1].wNum = currentIPBs[index].wNum - 1;\r\n                IPB_min(1,index);\r\n                index--;\r\n                flag1 = true;\r\n            }\r\n            else\r\n            {\r\n                flag1 = false;\r\n            }\r\n            if((currentIPBs.length > (index+1)) && (IPB_next(currentIPBs[index].IPstr,currentIPBs[index].wNum)==currentIPBs[index+1].IPstr) \r\n            && (currentIPBs[index].wNum == currentIPBs[index+1].wNum)\r\n            && (currentIPBs[index-1].ASN == currentIPBs[index].ASN)\r\n            && (currentIPBs[index].owner == currentIPBs[index+1].owner)\r\n            && (currentIPBs[index].lease == currentIPBs[index+1].lease)\r\n            ){\r\n                currentIPBs[index].wNum = currentIPBs[index].wNum - 1;\r\n                IPB_min(1,index+1);\r\n                flag2 = true;\r\n            }\r\n            else\r\n            {\r\n                flag2 = false;\r\n            }\r\n        }\r\n        index_d = index;\r\n        return index_d;\r\n    }\r\n\r\n    function registerPrefix(uint32 ASN, uint8 ipStr1, uint8 ipStr2, uint8 ipStr3, uint8 ipStr4, uint8 w_num) external onlyOwnerICANN returns(uint)\r\n    {\r\n        require ((w_num<=24)&&(w_num>=8));\r\n        IP_str = covertIP(ipStr1,ipStr2,ipStr3,ipStr4);\r\n        IP_str = (IP_str>>(32-w_num))<<(32-w_num);\r\n        \r\n        int num = IPB_exist(IP_str,w_num);\r\n        require(num >= 0);\r\n        uint unum = uint(num);\r\n        \r\n        IPB[] memory RegIPB = new IPB[](1);\r\n        RegIPB[0].IPstr = IP_str;\r\n        RegIPB[0].wNum = w_num;\r\n        RegIPB[0].ASN = ASN;\r\n        RegIPB[0].state = State.Registered;\r\n        RegIPB[0].owner = ownerICANN;\r\n        RegIPB[0].lease = ownerICANN;\r\n        IPB_add(RegIPB,1,unum);\r\n        \r\n        emit Register(ipStr1,ipStr2,ipStr3,ipStr4,w_num);\r\n        return unum;\r\n\r\n    }\r\n\r\n    function delegatePrefix(uint8 ipStr1, uint8 ipStr2, uint8 ipStr3, uint8 ipStr4, uint8 w_num, address delagatee) public\r\n    {\r\n        require ((w_num<=24)&&(w_num>=8));\r\n        IP_str = covertIP(ipStr1,ipStr2,ipStr3,ipStr4);\r\n        IP_str = (IP_str>>(32-w_num))<<(32-w_num);\r\n        \r\n        int num = IPB_check(IP_str,w_num);\r\n        require(num >= 0);\r\n        \r\n        uint unum = uint(num);\r\n        require((msg.sender == currentIPBs[unum].owner) && (currentIPBs[unum].state != State.Allocated));\r\n        if((IP_str != currentIPBs[unum].IPstr) || w_num != currentIPBs[unum].wNum )\r\n        {\r\n            unum = IPB_divide(unum,IP_str,w_num);\r\n        }\r\n        currentIPBs[unum].owner = delagatee;\r\n        currentIPBs[unum].lease = delagatee;\r\n        currentIPBs[unum].state = State.Delegated;\r\n        IPB_update(unum);\r\n        emit Delegate(ipStr1,ipStr2,ipStr3,ipStr4,w_num,delagatee);\r\n    }\r\n    \r\n    function assignPrefix(uint8 ipStr1, uint8 ipStr2, uint8 ipStr3, uint8 ipStr4, uint8 w_num,address owner) public \r\n    {\r\n        require ((w_num<=24)&&(w_num>=8));\r\n        IP_str = covertIP(ipStr1,ipStr2,ipStr3,ipStr4);\r\n        IP_str = (IP_str>>(32-w_num))<<(32-w_num);\r\n        \r\n        int num = IPB_exist(IP_str,w_num);\r\n        require(num >= 0);\r\n        uint unum = uint(num);\r\n        \r\n        require(msg.sender == currentIPBs[unum].owner);\r\n        if(( IP_str!=currentIPBs[unum].IPstr) || ( w_num != currentIPBs[unum].wNum))\r\n        {\r\n\t\t    unum = IPB_divide(unum, IP_str,w_num);            \r\n        }\r\n\r\n\t\tcurrentIPBs[unum].lease=owner;\r\n\t\tcurrentIPBs[unum].state=State.Allocated;\r\n\t\tIPB_update(unum);\r\n        emit Allocate(msg.sender,ipStr1,ipStr2,ipStr3,ipStr4,w_num,owner);\r\n\r\n    }\r\n    \r\n    function checkPrefix(uint32 ASN, uint8 ipStr1, uint8 ipStr2, uint8 ipStr3, uint8 ipStr4, uint8 w_num) public returns (int)\r\n    {\r\n        require ((w_num<=24)&&(w_num>=8));\r\n        IP_str = covertIP(ipStr1,ipStr2,ipStr3,ipStr4);\r\n        IP_str = (IP_str>>(32-w_num))<<(32-w_num);\r\n        \r\n        int num = IPB_check(IP_str,w_num);\r\n        require(num >= 0);\r\n        int flag_check;\r\n        uint unum = uint(num);\r\n        if(ROA[ASN].IPBindex == unum)\r\n        {\r\n            flag_check = 1;\r\n            return flag_check;    \r\n        }\r\n        flag_check = -1;\r\n        return flag_check;  \r\n    }\r\n    \r\n    function revokePrefix(uint8 ipStr1, uint8 ipStr2, uint8 ipStr3, uint8 ipStr4, uint8 w_num) external onlyOwnerICANN\r\n    {\r\n        require ((w_num<=24)&&(w_num>=8));\r\n        IP_str = covertIP(ipStr1,ipStr2,ipStr3,ipStr4);\r\n        IP_str = (IP_str>>(32-w_num))<<(32-w_num);\r\n        \r\n        int num = IPB_check(IP_str,w_num);\r\n        require(num >= 0);\r\n        uint unum = uint(num);\r\n        \r\n        currentIPBs[unum].owner = ownerICANN;\r\n        emit Revoke(ipStr1,ipStr2,ipStr3,ipStr4,w_num,currentIPBs[unum].lease);\r\n        currentIPBs[unum].lease = ownerICANN;\r\n        currentIPBs[unum].state = State.Revoked;\r\n        IPB_update(unum);\r\n    }\r\n\r\n    function hasPrefix(uint32 ASN, uint8 ipStr1, uint8 ipStr2, uint8 ipStr3, uint8 ipStr4, uint8 wNum) public returns(bool)\r\n    {\r\n        require (ROA[ASN].asiContract != address(0));\r\n        int index = checkPrefix(ASN, ipStr1, ipStr2, ipStr3, ipStr4, wNum);\r\n        if (index == -1)\r\n            return false;\r\n        else\r\n            return true;\r\n    }\r\n    \r\n}\r\n",
  "sourcePath": "/home/bayang//ISRchain/contracts/IRMcontract.sol",
  "compiler": {
    "name": "solc",
    "version": "0.5.0+commit.1d4f565a.Emscripten.clang"
  },
  "schemaVersion": "3.0.9",
  "updatedAt": "2019-10-31T16:06:57.260Z",
  "devdoc": {
    "methods": {}
  },
  "userdoc": {
    "methods": {}
  }
}